{
  "contractName": "Federation",
  "abi": [
    {
      "inputs": [],
      "stateMutability": "nonpayable",
      "type": "constructor"
    },
    {
      "anonymous": false,
      "inputs": [
        {
          "indexed": true,
          "internalType": "address",
          "name": "clientAddress",
          "type": "address"
        }
      ],
      "name": "ClientAuthorized",
      "type": "event"
    },
    {
      "anonymous": false,
      "inputs": [
        {
          "indexed": true,
          "internalType": "address",
          "name": "clientAddress",
          "type": "address"
        }
      ],
      "name": "ClientDeauthorized",
      "type": "event"
    },
    {
      "anonymous": false,
      "inputs": [
        {
          "indexed": true,
          "internalType": "address",
          "name": "from",
          "type": "address"
        },
        {
          "indexed": false,
          "internalType": "uint256",
          "name": "amount",
          "type": "uint256"
        }
      ],
      "name": "ContractFunded",
      "type": "event"
    },
    {
      "anonymous": false,
      "inputs": [
        {
          "indexed": true,
          "internalType": "address",
          "name": "clientAddress",
          "type": "address"
        },
        {
          "indexed": false,
          "internalType": "uint256",
          "name": "round",
          "type": "uint256"
        },
        {
          "indexed": false,
          "internalType": "uint256",
          "name": "score",
          "type": "uint256"
        }
      ],
      "name": "ContributionRecorded",
      "type": "event"
    },
    {
      "anonymous": false,
      "inputs": [
        {
          "indexed": true,
          "internalType": "address",
          "name": "to",
          "type": "address"
        },
        {
          "indexed": false,
          "internalType": "uint256",
          "name": "amount",
          "type": "uint256"
        }
      ],
      "name": "EmergencyWithdrawal",
      "type": "event"
    },
    {
      "anonymous": false,
      "inputs": [
        {
          "indexed": true,
          "internalType": "bytes32",
          "name": "modelId",
          "type": "bytes32"
        }
      ],
      "name": "ModelDeactivated",
      "type": "event"
    },
    {
      "anonymous": false,
      "inputs": [
        {
          "indexed": true,
          "internalType": "bytes32",
          "name": "modelId",
          "type": "bytes32"
        },
        {
          "indexed": false,
          "internalType": "string",
          "name": "ipfsHash",
          "type": "string"
        },
        {
          "indexed": false,
          "internalType": "uint256",
          "name": "round",
          "type": "uint256"
        },
        {
          "indexed": false,
          "internalType": "string",
          "name": "version",
          "type": "string"
        }
      ],
      "name": "ModelRegistered",
      "type": "event"
    },
    {
      "anonymous": false,
      "inputs": [
        {
          "indexed": true,
          "internalType": "bytes32",
          "name": "modelId",
          "type": "bytes32"
        },
        {
          "indexed": false,
          "internalType": "string",
          "name": "ipfsHash",
          "type": "string"
        },
        {
          "indexed": false,
          "internalType": "uint256",
          "name": "round",
          "type": "uint256"
        },
        {
          "indexed": false,
          "internalType": "string",
          "name": "version",
          "type": "string"
        }
      ],
      "name": "ModelUpdated",
      "type": "event"
    },
    {
      "anonymous": false,
      "inputs": [
        {
          "indexed": true,
          "internalType": "address",
          "name": "clientAddress",
          "type": "address"
        },
        {
          "indexed": false,
          "internalType": "uint256",
          "name": "amount",
          "type": "uint256"
        },
        {
          "indexed": false,
          "internalType": "uint256",
          "name": "round",
          "type": "uint256"
        }
      ],
      "name": "RewardAllocated",
      "type": "event"
    },
    {
      "anonymous": false,
      "inputs": [
        {
          "indexed": true,
          "internalType": "address",
          "name": "clientAddress",
          "type": "address"
        },
        {
          "indexed": false,
          "internalType": "uint256",
          "name": "amount",
          "type": "uint256"
        }
      ],
      "name": "RewardClaimed",
      "type": "event"
    },
    {
      "anonymous": false,
      "inputs": [
        {
          "indexed": true,
          "internalType": "uint256",
          "name": "round",
          "type": "uint256"
        },
        {
          "indexed": false,
          "internalType": "uint256",
          "name": "totalAmount",
          "type": "uint256"
        }
      ],
      "name": "RewardPoolFinalized",
      "type": "event"
    },
    {
      "anonymous": false,
      "inputs": [
        {
          "indexed": true,
          "internalType": "uint256",
          "name": "round",
          "type": "uint256"
        },
        {
          "indexed": false,
          "internalType": "uint256",
          "name": "amount",
          "type": "uint256"
        }
      ],
      "name": "RewardPoolFunded",
      "type": "event"
    },
    {
      "stateMutability": "payable",
      "type": "fallback",
      "payable": true
    },
    {
      "inputs": [
        {
          "internalType": "uint256",
          "name": "",
          "type": "uint256"
        }
      ],
      "name": "authorizedClients",
      "outputs": [
        {
          "internalType": "address",
          "name": "",
          "type": "address"
        }
      ],
      "stateMutability": "view",
      "type": "function",
      "constant": true
    },
    {
      "inputs": [
        {
          "internalType": "address",
          "name": "",
          "type": "address"
        }
      ],
      "name": "clientRegistry",
      "outputs": [
        {
          "internalType": "uint256",
          "name": "contributionCount",
          "type": "uint256"
        },
        {
          "internalType": "uint256",
          "name": "totalScore",
          "type": "uint256"
        },
        {
          "internalType": "bool",
          "name": "isAuthorized",
          "type": "bool"
        },
        {
          "internalType": "uint256",
          "name": "lastContributionTimestamp",
          "type": "uint256"
        },
        {
          "internalType": "uint256",
          "name": "rewardsEarned",
          "type": "uint256"
        },
        {
          "internalType": "bool",
          "name": "rewardsClaimed",
          "type": "bool"
        }
      ],
      "stateMutability": "view",
      "type": "function",
      "constant": true
    },
    {
      "inputs": [],
      "name": "contractBalance",
      "outputs": [
        {
          "internalType": "uint256",
          "name": "",
          "type": "uint256"
        }
      ],
      "stateMutability": "view",
      "type": "function",
      "constant": true
    },
    {
      "inputs": [
        {
          "internalType": "address",
          "name": "",
          "type": "address"
        },
        {
          "internalType": "uint256",
          "name": "",
          "type": "uint256"
        }
      ],
      "name": "contributionRecords",
      "outputs": [
        {
          "internalType": "address",
          "name": "clientAddress",
          "type": "address"
        },
        {
          "internalType": "uint256",
          "name": "round",
          "type": "uint256"
        },
        {
          "internalType": "string",
          "name": "ipfsHash",
          "type": "string"
        },
        {
          "internalType": "uint256",
          "name": "accuracy",
          "type": "uint256"
        },
        {
          "internalType": "uint256",
          "name": "timestamp",
          "type": "uint256"
        },
        {
          "internalType": "uint256",
          "name": "score",
          "type": "uint256"
        },
        {
          "internalType": "bool",
          "name": "rewarded",
          "type": "bool"
        }
      ],
      "stateMutability": "view",
      "type": "function",
      "constant": true
    },
    {
      "inputs": [
        {
          "internalType": "string",
          "name": "",
          "type": "string"
        }
      ],
      "name": "latestVersions",
      "outputs": [
        {
          "internalType": "bytes32",
          "name": "",
          "type": "bytes32"
        }
      ],
      "stateMutability": "view",
      "type": "function",
      "constant": true
    },
    {
      "inputs": [
        {
          "internalType": "bytes32",
          "name": "",
          "type": "bytes32"
        }
      ],
      "name": "models",
      "outputs": [
        {
          "internalType": "string",
          "name": "ipfsHash",
          "type": "string"
        },
        {
          "internalType": "uint256",
          "name": "round",
          "type": "uint256"
        },
        {
          "internalType": "string",
          "name": "version",
          "type": "string"
        },
        {
          "internalType": "uint256",
          "name": "timestamp",
          "type": "uint256"
        },
        {
          "internalType": "uint256",
          "name": "participatingClients",
          "type": "uint256"
        },
        {
          "internalType": "address",
          "name": "publisher",
          "type": "address"
        },
        {
          "internalType": "bool",
          "name": "isActive",
          "type": "bool"
        }
      ],
      "stateMutability": "view",
      "type": "function",
      "constant": true
    },
    {
      "inputs": [
        {
          "internalType": "uint256",
          "name": "",
          "type": "uint256"
        },
        {
          "internalType": "uint256",
          "name": "",
          "type": "uint256"
        }
      ],
      "name": "modelsByRound",
      "outputs": [
        {
          "internalType": "bytes32",
          "name": "",
          "type": "bytes32"
        }
      ],
      "stateMutability": "view",
      "type": "function",
      "constant": true
    },
    {
      "inputs": [],
      "name": "owner",
      "outputs": [
        {
          "internalType": "address",
          "name": "",
          "type": "address"
        }
      ],
      "stateMutability": "view",
      "type": "function",
      "constant": true
    },
    {
      "inputs": [
        {
          "internalType": "uint256",
          "name": "",
          "type": "uint256"
        },
        {
          "internalType": "uint256",
          "name": "",
          "type": "uint256"
        }
      ],
      "name": "roundContributions",
      "outputs": [
        {
          "internalType": "address",
          "name": "clientAddress",
          "type": "address"
        },
        {
          "internalType": "uint256",
          "name": "round",
          "type": "uint256"
        },
        {
          "internalType": "string",
          "name": "ipfsHash",
          "type": "string"
        },
        {
          "internalType": "uint256",
          "name": "accuracy",
          "type": "uint256"
        },
        {
          "internalType": "uint256",
          "name": "timestamp",
          "type": "uint256"
        },
        {
          "internalType": "uint256",
          "name": "score",
          "type": "uint256"
        },
        {
          "internalType": "bool",
          "name": "rewarded",
          "type": "bool"
        }
      ],
      "stateMutability": "view",
      "type": "function",
      "constant": true
    },
    {
      "inputs": [
        {
          "internalType": "uint256",
          "name": "",
          "type": "uint256"
        }
      ],
      "name": "roundRewardPools",
      "outputs": [
        {
          "internalType": "uint256",
          "name": "totalAmount",
          "type": "uint256"
        },
        {
          "internalType": "uint256",
          "name": "allocatedAmount",
          "type": "uint256"
        },
        {
          "internalType": "bool",
          "name": "isFinalized",
          "type": "bool"
        }
      ],
      "stateMutability": "view",
      "type": "function",
      "constant": true
    },
    {
      "inputs": [],
      "name": "totalRewardsAllocated",
      "outputs": [
        {
          "internalType": "uint256",
          "name": "",
          "type": "uint256"
        }
      ],
      "stateMutability": "view",
      "type": "function",
      "constant": true
    },
    {
      "inputs": [],
      "name": "totalRewardsClaimed",
      "outputs": [
        {
          "internalType": "uint256",
          "name": "",
          "type": "uint256"
        }
      ],
      "stateMutability": "view",
      "type": "function",
      "constant": true
    },
    {
      "stateMutability": "payable",
      "type": "receive",
      "payable": true
    },
    {
      "inputs": [],
      "name": "fundContract",
      "outputs": [],
      "stateMutability": "payable",
      "type": "function",
      "payable": true
    },
    {
      "inputs": [
        {
          "internalType": "uint256",
          "name": "round",
          "type": "uint256"
        }
      ],
      "name": "fundRoundRewardPool",
      "outputs": [],
      "stateMutability": "payable",
      "type": "function",
      "payable": true
    },
    {
      "inputs": [
        {
          "internalType": "uint256",
          "name": "round",
          "type": "uint256"
        }
      ],
      "name": "finalizeRoundRewardPool",
      "outputs": [],
      "stateMutability": "nonpayable",
      "type": "function"
    },
    {
      "inputs": [
        {
          "internalType": "string",
          "name": "ipfsHash",
          "type": "string"
        },
        {
          "internalType": "uint256",
          "name": "round",
          "type": "uint256"
        }
      ],
      "name": "generateModelId",
      "outputs": [
        {
          "internalType": "bytes32",
          "name": "",
          "type": "bytes32"
        }
      ],
      "stateMutability": "pure",
      "type": "function",
      "constant": true
    },
    {
      "inputs": [
        {
          "internalType": "string",
          "name": "ipfsHash",
          "type": "string"
        },
        {
          "internalType": "uint256",
          "name": "round",
          "type": "uint256"
        },
        {
          "internalType": "string",
          "name": "version",
          "type": "string"
        },
        {
          "internalType": "uint256",
          "name": "participatingClients",
          "type": "uint256"
        }
      ],
      "name": "registerModel",
      "outputs": [
        {
          "internalType": "bytes32",
          "name": "",
          "type": "bytes32"
        }
      ],
      "stateMutability": "nonpayable",
      "type": "function"
    },
    {
      "inputs": [
        {
          "internalType": "string",
          "name": "ipfsHash",
          "type": "string"
        },
        {
          "internalType": "uint256",
          "name": "round",
          "type": "uint256"
        },
        {
          "internalType": "string",
          "name": "version",
          "type": "string"
        },
        {
          "internalType": "uint256",
          "name": "participatingClients",
          "type": "uint256"
        }
      ],
      "name": "updateModelByRound",
      "outputs": [
        {
          "internalType": "bytes32",
          "name": "",
          "type": "bytes32"
        }
      ],
      "stateMutability": "nonpayable",
      "type": "function"
    },
    {
      "inputs": [
        {
          "internalType": "string",
          "name": "versionPrefix",
          "type": "string"
        }
      ],
      "name": "getLatestModel",
      "outputs": [
        {
          "internalType": "bytes32",
          "name": "modelId",
          "type": "bytes32"
        },
        {
          "internalType": "string",
          "name": "ipfsHash",
          "type": "string"
        },
        {
          "internalType": "uint256",
          "name": "round",
          "type": "uint256"
        },
        {
          "internalType": "string",
          "name": "version",
          "type": "string"
        },
        {
          "internalType": "uint256",
          "name": "timestamp",
          "type": "uint256"
        },
        {
          "internalType": "uint256",
          "name": "participatingClients",
          "type": "uint256"
        }
      ],
      "stateMutability": "view",
      "type": "function",
      "constant": true
    },
    {
      "inputs": [
        {
          "internalType": "uint256",
          "name": "round",
          "type": "uint256"
        }
      ],
      "name": "getModelsByRound",
      "outputs": [
        {
          "internalType": "bytes32[]",
          "name": "",
          "type": "bytes32[]"
        }
      ],
      "stateMutability": "view",
      "type": "function",
      "constant": true
    },
    {
      "inputs": [
        {
          "internalType": "uint256",
          "name": "round",
          "type": "uint256"
        }
      ],
      "name": "getLatestModelByRound",
      "outputs": [
        {
          "internalType": "bytes32",
          "name": "modelId",
          "type": "bytes32"
        },
        {
          "internalType": "string",
          "name": "ipfsHash",
          "type": "string"
        },
        {
          "internalType": "string",
          "name": "version",
          "type": "string"
        },
        {
          "internalType": "uint256",
          "name": "timestamp",
          "type": "uint256"
        },
        {
          "internalType": "uint256",
          "name": "participatingClients",
          "type": "uint256"
        },
        {
          "internalType": "address",
          "name": "publisher",
          "type": "address"
        },
        {
          "internalType": "bool",
          "name": "isActive",
          "type": "bool"
        }
      ],
      "stateMutability": "view",
      "type": "function",
      "constant": true
    },
    {
      "inputs": [
        {
          "internalType": "bytes32",
          "name": "modelId",
          "type": "bytes32"
        }
      ],
      "name": "getModelDetails",
      "outputs": [
        {
          "internalType": "string",
          "name": "ipfsHash",
          "type": "string"
        },
        {
          "internalType": "uint256",
          "name": "round",
          "type": "uint256"
        },
        {
          "internalType": "string",
          "name": "version",
          "type": "string"
        },
        {
          "internalType": "uint256",
          "name": "timestamp",
          "type": "uint256"
        },
        {
          "internalType": "uint256",
          "name": "participatingClients",
          "type": "uint256"
        },
        {
          "internalType": "address",
          "name": "publisher",
          "type": "address"
        },
        {
          "internalType": "bool",
          "name": "isActive",
          "type": "bool"
        }
      ],
      "stateMutability": "view",
      "type": "function",
      "constant": true
    },
    {
      "inputs": [
        {
          "internalType": "bytes32",
          "name": "modelId",
          "type": "bytes32"
        }
      ],
      "name": "getVersionFromModelId",
      "outputs": [
        {
          "internalType": "string",
          "name": "",
          "type": "string"
        }
      ],
      "stateMutability": "view",
      "type": "function",
      "constant": true
    },
    {
      "inputs": [
        {
          "internalType": "bytes32",
          "name": "modelId",
          "type": "bytes32"
        }
      ],
      "name": "deactivateModel",
      "outputs": [],
      "stateMutability": "nonpayable",
      "type": "function"
    },
    {
      "inputs": [
        {
          "internalType": "address",
          "name": "clientAddress",
          "type": "address"
        }
      ],
      "name": "authorizeClient",
      "outputs": [],
      "stateMutability": "nonpayable",
      "type": "function"
    },
    {
      "inputs": [
        {
          "internalType": "address[]",
          "name": "clientAddresses",
          "type": "address[]"
        }
      ],
      "name": "authorizeClients",
      "outputs": [],
      "stateMutability": "nonpayable",
      "type": "function"
    },
    {
      "inputs": [
        {
          "internalType": "address",
          "name": "clientAddress",
          "type": "address"
        }
      ],
      "name": "deauthorizeClient",
      "outputs": [],
      "stateMutability": "nonpayable",
      "type": "function"
    },
    {
      "inputs": [
        {
          "internalType": "address",
          "name": "clientAddress",
          "type": "address"
        }
      ],
      "name": "isClientAuthorized",
      "outputs": [
        {
          "internalType": "bool",
          "name": "",
          "type": "bool"
        }
      ],
      "stateMutability": "view",
      "type": "function",
      "constant": true
    },
    {
      "inputs": [],
      "name": "getAllAuthorizedClients",
      "outputs": [
        {
          "internalType": "address[]",
          "name": "",
          "type": "address[]"
        }
      ],
      "stateMutability": "view",
      "type": "function",
      "constant": true
    },
    {
      "inputs": [
        {
          "internalType": "uint256",
          "name": "round",
          "type": "uint256"
        }
      ],
      "name": "allocateRewardsForRound",
      "outputs": [],
      "stateMutability": "nonpayable",
      "type": "function"
    },
    {
      "inputs": [],
      "name": "claimRewards",
      "outputs": [],
      "stateMutability": "nonpayable",
      "type": "function"
    },
    {
      "inputs": [
        {
          "internalType": "address",
          "name": "clientAddress",
          "type": "address"
        }
      ],
      "name": "getAvailableRewards",
      "outputs": [
        {
          "internalType": "uint256",
          "name": "",
          "type": "uint256"
        }
      ],
      "stateMutability": "view",
      "type": "function",
      "constant": true
    },
    {
      "inputs": [
        {
          "internalType": "uint256",
          "name": "amount",
          "type": "uint256"
        }
      ],
      "name": "emergencyWithdraw",
      "outputs": [],
      "stateMutability": "nonpayable",
      "type": "function"
    },
    {
      "inputs": [
        {
          "internalType": "address",
          "name": "clientAddress",
          "type": "address"
        },
        {
          "internalType": "uint256",
          "name": "round",
          "type": "uint256"
        },
        {
          "internalType": "string",
          "name": "ipfsHash",
          "type": "string"
        },
        {
          "internalType": "uint256",
          "name": "accuracy",
          "type": "uint256"
        }
      ],
      "name": "recordContribution",
      "outputs": [
        {
          "internalType": "uint256",
          "name": "",
          "type": "uint256"
        }
      ],
      "stateMutability": "nonpayable",
      "type": "function"
    },
    {
      "inputs": [
        {
          "internalType": "address",
          "name": "clientAddress",
          "type": "address"
        }
      ],
      "name": "getClientContribution",
      "outputs": [
        {
          "internalType": "uint256",
          "name": "contributionCount",
          "type": "uint256"
        },
        {
          "internalType": "uint256",
          "name": "totalScore",
          "type": "uint256"
        },
        {
          "internalType": "bool",
          "name": "isAuthorized",
          "type": "bool"
        },
        {
          "internalType": "uint256",
          "name": "lastContributionTimestamp",
          "type": "uint256"
        },
        {
          "internalType": "uint256",
          "name": "rewardsEarned",
          "type": "uint256"
        },
        {
          "internalType": "bool",
          "name": "rewardsClaimed",
          "type": "bool"
        }
      ],
      "stateMutability": "view",
      "type": "function",
      "constant": true
    },
    {
      "inputs": [
        {
          "internalType": "address",
          "name": "clientAddress",
          "type": "address"
        }
      ],
      "name": "getClientContributionRecords",
      "outputs": [
        {
          "internalType": "uint256[]",
          "name": "rounds",
          "type": "uint256[]"
        },
        {
          "internalType": "uint256[]",
          "name": "accuracies",
          "type": "uint256[]"
        },
        {
          "internalType": "uint256[]",
          "name": "scores",
          "type": "uint256[]"
        },
        {
          "internalType": "uint256[]",
          "name": "timestamps",
          "type": "uint256[]"
        },
        {
          "internalType": "bool[]",
          "name": "rewarded",
          "type": "bool[]"
        }
      ],
      "stateMutability": "view",
      "type": "function",
      "constant": true
    },
    {
      "inputs": [
        {
          "internalType": "uint256",
          "name": "round",
          "type": "uint256"
        }
      ],
      "name": "getRoundContributions",
      "outputs": [
        {
          "internalType": "address[]",
          "name": "clients",
          "type": "address[]"
        },
        {
          "internalType": "uint256[]",
          "name": "accuracies",
          "type": "uint256[]"
        },
        {
          "internalType": "uint256[]",
          "name": "scores",
          "type": "uint256[]"
        },
        {
          "internalType": "bool[]",
          "name": "rewarded",
          "type": "bool[]"
        }
      ],
      "stateMutability": "view",
      "type": "function",
      "constant": true
    },
    {
      "inputs": [
        {
          "internalType": "uint256",
          "name": "round",
          "type": "uint256"
        }
      ],
      "name": "getRoundRewardPool",
      "outputs": [
        {
          "internalType": "uint256",
          "name": "totalAmount",
          "type": "uint256"
        },
        {
          "internalType": "uint256",
          "name": "allocatedAmount",
          "type": "uint256"
        },
        {
          "internalType": "uint256",
          "name": "remainingAmount",
          "type": "uint256"
        },
        {
          "internalType": "bool",
          "name": "isFinalized",
          "type": "bool"
        }
      ],
      "stateMutability": "view",
      "type": "function",
      "constant": true
    },
    {
      "inputs": [
        {
          "internalType": "address",
          "name": "newOwner",
          "type": "address"
        }
      ],
      "name": "transferOwnership",
      "outputs": [],
      "stateMutability": "nonpayable",
      "type": "function"
    },
    {
      "inputs": [],
      "name": "getAuthorizedClientCount",
      "outputs": [
        {
          "internalType": "uint256",
          "name": "",
          "type": "uint256"
        }
      ],
      "stateMutability": "view",
      "type": "function",
      "constant": true
    }
  ],
  "bytecode": "0x608060405234801561001057600080fd5b50600b80546001600160a01b031916331790556000600a55613e6d806100376000396000f3fe60806040526004361061023f5760003560e01c8063873e31fa1161012e578063c5d3dc34116100ab578063eaa516801161006f578063eaa5168014610780578063ef629e97146107ad578063efaf4be5146107cd578063f2fde38b146107ed578063f4fbb6121461080d57610297565b8063c5d3dc34146106bb578063ce38b4e3146106db578063d9cf4bb9146106fb578063e236f46b1461072d578063e780f7391461076057610297565b8063a7362750116100f2578063a736275014610633578063aa9bf1d414610653578063b6a45d6214610673578063b82254b214610693578063bd097e21146106b357610297565b8063873e31fa146105a35780638b7afe2e146105c35780638da5cb5b146105d857806398abc84f146105ed578063a34b0f761461061e57610297565b806355017705116101bc5780636edf4ec7116101805780636edf4ec7146105085780637184063f146105285780637b2210281461053b5780637d9718621461055057806382dcd7f51461058357610297565b8063550177051461042b5780635e1216a3146104585780635ede06821461048b5780636c572793146104bb5780636ebe4e28146104e857610297565b8063372500ab11610203578063372500ab1461038357806341744f7b146103985780634382e71d146103ba5780634f057af0146103e95780635312ea8e1461040b57610297565b8063047af67f146102a957806307d0fa29146102cb57806309ebd07a146103015780630c45114d146103215780632514f0181461035157610297565b366102975734600a60008282546102569190613d17565b909155505060405133907f0939f6f4877faf071412e527bc4c6d0bd65ad077e52b57334f7765265647a7f19061028d903490613637565b60405180910390a2005b34600a60008282546102569190613d17565b3480156102b557600080fd5b506102c96102c4366004613290565b61082d565b005b3480156102d757600080fd5b506102eb6102e6366004613290565b61090c565b6040516102f891906134ad565b60405180910390f35b34801561030d57600080fd5b506102c961031c366004613290565b610936565b34801561032d57600080fd5b5061034161033c366004613290565b610c42565b6040516102f89493929190613523565b34801561035d57600080fd5b5061037161036c36600461313d565b610f74565b6040516102f896959493929190613ca7565b34801561038f57600080fd5b506102c9610fbc565b3480156103a457600080fd5b506103ad61115d565b6040516102f89190613637565b3480156103c657600080fd5b506103da6103d5366004613290565b611163565b6040516102f893929190613c8f565b3480156103f557600080fd5b506103fe611187565b6040516102f89190613510565b34801561041757600080fd5b506102c9610426366004613290565b6111e9565b34801561043757600080fd5b5061044b610446366004613290565b611318565b6040516102f8919061357b565b34801561046457600080fd5b5061047861047336600461315e565b61137b565b6040516102f897969594939291906134c1565b34801561049757600080fd5b506104ab6104a6366004613290565b61146d565b6040516102f89493929190613cd1565b3480156104c757600080fd5b506104db6104d636600461313d565b6114ab565b6040516102f8919061362c565b3480156104f457600080fd5b506102c96105033660046131e3565b6114cc565b34801561051457600080fd5b506102c9610523366004613290565b611548565b6102c9610536366004613290565b611605565b34801561054757600080fd5b506103ad6116c1565b34801561055c57600080fd5b5061057061056b366004613290565b6116c7565b6040516102f89796959493929190613640565b34801561058f57600080fd5b5061037161059e36600461313d565b6118c1565b3480156105af57600080fd5b506103ad6105be36600461313d565b6118ff565b3480156105cf57600080fd5b506103ad611948565b3480156105e457600080fd5b506102eb61194e565b3480156105f957600080fd5b5061060d61060836600461313d565b61195d565b6040516102f89594939291906135bf565b34801561062a57600080fd5b506103ad611d2d565b34801561063f57600080fd5b506103ad61064e36600461331c565b611d33565b34801561065f57600080fd5b506102c961066e36600461313d565b611f38565b34801561067f57600080fd5b506103ad61068e3660046132a8565b612039565b34801561069f57600080fd5b506103ad6106ae36600461331c565b612056565b6102c9612274565b3480156106c757600080fd5b506103ad6106d636600461337c565b6122c7565b3480156106e757600080fd5b506102c96106f636600461313d565b6122f8565b34801561070757600080fd5b5061071b6107163660046132a8565b6124f7565b6040516102f89695949392919061369d565b34801561073957600080fd5b5061074d610748366004613290565b61269b565b6040516102f8979695949392919061372c565b34801561076c57600080fd5b506103ad61077b3660046132da565b6127f6565b34801561078c57600080fd5b506107a061079b366004613290565b61282a565b6040516102f891906136e4565b3480156107b957600080fd5b506103ad6107c8366004613187565b6128c5565b3480156107d957600080fd5b5061074d6107e8366004613290565b612b65565b3480156107f957600080fd5b506102c961080836600461313d565b612d14565b34801561081957600080fd5b5061047861082836600461337c565b612d86565b600b546001600160a01b031633146108605760405162461bcd60e51b815260040161085790613757565b60405180910390fd5b60008181526020819052604090206003015461088e5760405162461bcd60e51b815260040161085790613a62565b600081815260208190526040902060050154600160a01b900460ff166108c65760405162461bcd60e51b81526004016108579061380a565b600081815260208190526040808220600501805460ff60a01b191690555182917f77731f8c28ec1f1515adfd0a49782a0c50fa7dd8f930387223709879f318505e91a250565b6004818154811061091c57600080fd5b6000918252602090912001546001600160a01b0316905081565b600b546001600160a01b031633146109605760405162461bcd60e51b815260040161085790613757565b6000818152600660205260409020805461098c5760405162461bcd60e51b8152600401610857906137d3565b600082815260076020526040902080546109b85760405162461bcd60e51b8152600401610857906138ff565b600281015460ff166109dc5760405162461bcd60e51b8152600401610857906138b0565b6000805b8354811015610a7657838181548110610a0957634e487b7160e01b600052603260045260246000fd5b600091825260209091206006600790920201015460ff16610a6457838181548110610a4457634e487b7160e01b600052603260045260246000fd5b90600052602060002090600702016005015482610a619190613d17565b91505b80610a6e81613df0565b9150506109e0565b5060008111610a975760405162461bcd60e51b815260040161085790613ba2565b60018201548254600091610aaa91613d6e565b905060008111610acc5760405162461bcd60e51b815260040161085790613ad8565b60005b8454811015610c3a57848181548110610af857634e487b7160e01b600052603260045260246000fd5b600091825260209091206006600790920201015460ff16610c28576000858281548110610b3557634e487b7160e01b600052603260045260246000fd5b90600052602060002090600702019050600084848360050154610b589190613d4f565b610b629190613d2f565b60068301805460ff1916600117905582546001600160a01b031660009081526003602052604081206004810180549394509092849290610ba3908490613d17565b9250508190555081876001016000828254610bbe9190613d17565b925050819055508160086000828254610bd79190613d17565b909155505082546040516001600160a01b03909116907fd04b2df25306f83a0e495f04178ff8c2b3ed3456920e3cee6ec2070c1d26887890610c1c9085908d90613c81565b60405180910390a25050505b80610c3281613df0565b915050610acf565b505050505050565b60008181526006602052604090208054606091829182918291806001600160401b03811115610c8157634e487b7160e01b600052604160045260246000fd5b604051908082528060200260200182016040528015610caa578160200160208202803683370190505b509550806001600160401b03811115610cd357634e487b7160e01b600052604160045260246000fd5b604051908082528060200260200182016040528015610cfc578160200160208202803683370190505b509450806001600160401b03811115610d2557634e487b7160e01b600052604160045260246000fd5b604051908082528060200260200182016040528015610d4e578160200160208202803683370190505b509350806001600160401b03811115610d7757634e487b7160e01b600052604160045260246000fd5b604051908082528060200260200182016040528015610da0578160200160208202803683370190505b50925060005b81811015610f6a57828181548110610dce57634e487b7160e01b600052603260045260246000fd5b600091825260209091206007909102015487516001600160a01b0390911690889083908110610e0d57634e487b7160e01b600052603260045260246000fd5b60200260200101906001600160a01b031690816001600160a01b031681525050828181548110610e4d57634e487b7160e01b600052603260045260246000fd5b906000526020600020906007020160030154868281518110610e7f57634e487b7160e01b600052603260045260246000fd5b602002602001018181525050828181548110610eab57634e487b7160e01b600052603260045260246000fd5b906000526020600020906007020160050154858281518110610edd57634e487b7160e01b600052603260045260246000fd5b602002602001018181525050828181548110610f0957634e487b7160e01b600052603260045260246000fd5b906000526020600020906007020160060160009054906101000a900460ff16848281518110610f4857634e487b7160e01b600052603260045260246000fd5b9115156020928302919091019091015280610f6281613df0565b915050610da6565b5050509193509193565b6001600160a01b031660009081526003602081905260409091208054600182015460028301549383015460048401546005909401549295919460ff9081169491939192911690565b336000908152600360205260409020600281015460ff16610fef5760405162461bcd60e51b8152600401610857906139cd565b60008160040154116110135760405162461bcd60e51b8152600401610857906139a0565b600581015460ff16156110385760405162461bcd60e51b81526004016108579061379c565b6004810154600a5481111561105f5760405162461bcd60e51b815260040161085790613bcf565b60058201805460ff19166001179055600a8054829190600090611083908490613d6e565b92505081905550806009600082825461109c9190613d17565b9091555050604051600090339083906110b4906134aa565b60006040518083038185875af1925050503d80600081146110f1576040519150601f19603f3d011682016040523d82523d6000602084013e6110f6565b606091505b50509050806111175760405162461bcd60e51b815260040161085790613942565b336001600160a01b03167f106f923f993c2149d49b4255ff723acafa1f2d94393f561d3eda32ae348f7241836040516111509190613637565b60405180910390a2505050565b60085481565b60076020526000908152604090208054600182015460029092015490919060ff1683565b606060048054806020026020016040519081016040528092919081815260200182805480156111df57602002820191906000526020600020905b81546001600160a01b031681526001909101906020018083116111c1575b5050505050905090565b600b546001600160a01b031633146112135760405162461bcd60e51b815260040161085790613757565b600a548111156112355760405162461bcd60e51b815260040161085790613bcf565b80600a60008282546112479190613d6e565b9091555050600b546040516000916001600160a01b031690839061126a906134aa565b60006040518083038185875af1925050503d80600081146112a7576040519150601f19603f3d011682016040523d82523d6000602084013e6112ac565b606091505b50509050806112cd5760405162461bcd60e51b815260040161085790613942565b600b546040516001600160a01b03909116907f23d6711a1d031134a36921253c75aa59e967d38e369ac625992824315e204f209061130c908590613637565b60405180910390a25050565b60008181526001602090815260409182902080548351818402810184019094528084526060939283018282801561136e57602002820191906000526020600020905b81548152602001906001019080831161135a575b505050505090505b919050565b6005602052816000526040600020818154811061139757600080fd5b60009182526020909120600790910201805460018201546002830180546001600160a01b039093169550909350906113ce90613db5565b80601f01602080910402602001604051908101604052809291908181526020018280546113fa90613db5565b80156114475780601f1061141c57610100808354040283529160200191611447565b820191906000526020600020905b81548152906001019060200180831161142a57829003601f168201915b505050506003830154600484015460058501546006909501549394919390925060ff1687565b6000818152600760205260408120805460018201548392839283926114928183613d6e565b60029390930154919890975091955060ff169350915050565b6001600160a01b031660009081526003602052604090206002015460ff1690565b600b546001600160a01b031633146114f65760405162461bcd60e51b815260040161085790613757565b60005b81518110156115445761153282828151811061152557634e487b7160e01b600052603260045260246000fd5b6020026020010151611f38565b8061153c81613df0565b9150506114f9565b5050565b600b546001600160a01b031633146115725760405162461bcd60e51b815260040161085790613757565b6000818152600760205260409020805461159e5760405162461bcd60e51b815260040161085790613841565b600281015460ff16156115c35760405162461bcd60e51b81526004016108579061396b565b60028101805460ff19166001179055805460405183917faf1dac7370e7fab55530030b1727ae19d8c458631106253757eff13627cd707e9161130c9190613637565b600b546001600160a01b0316331461162f5760405162461bcd60e51b815260040161085790613757565b6000341161164f5760405162461bcd60e51b815260040161085790613a90565b6000818152600760205260408120805490913491839190611671908490613d17565b9250508190555034600a600082825461168a9190613d17565b92505081905550817f5451f0d28a59c1c16a9d7cc5017150d585749eb225366037423f94b85ad94ea73460405161130c9190613637565b60045490565b600081815260016020526040812054606090819083908190819081906116ff5760405162461bcd60e51b815260040161085790613b26565b600088815260016020819052604082208054909161171c91613d6e565b8154811061173a57634e487b7160e01b600052603260045260246000fd5b60009182526020808320919091015480835290829052604090912060038101546004820154600583015483549495509293859385936002850193909290916001600160a01b03811691600160a01b90910460ff1690869061179a90613db5565b80601f01602080910402602001604051908101604052809291908181526020018280546117c690613db5565b80156118135780601f106117e857610100808354040283529160200191611813565b820191906000526020600020905b8154815290600101906020018083116117f657829003601f168201915b5050505050955084805461182690613db5565b80601f016020809104026020016040519081016040528092919081815260200182805461185290613db5565b801561189f5780601f106118745761010080835404028352916020019161189f565b820191906000526020600020905b81548152906001019060200180831161188257829003601f168201915b5050505050945098509850985098509850985098505050919395979092949650565b60036020819052600091825260409091208054600182015460028301549383015460048401546005909401549294919360ff92831693919290911686565b6001600160a01b0381166000908152600360205260408120600281015460ff16158061192f5750600581015460ff165b1561193e576000915050611376565b6004015492915050565b600a5481565b600b546001600160a01b031681565b6001600160a01b03811660009081526005602052604090208054606091829182918291829190806001600160401b038111156119a957634e487b7160e01b600052604160045260246000fd5b6040519080825280602002602001820160405280156119d2578160200160208202803683370190505b509650806001600160401b038111156119fb57634e487b7160e01b600052604160045260246000fd5b604051908082528060200260200182016040528015611a24578160200160208202803683370190505b509550806001600160401b03811115611a4d57634e487b7160e01b600052604160045260246000fd5b604051908082528060200260200182016040528015611a76578160200160208202803683370190505b509450806001600160401b03811115611a9f57634e487b7160e01b600052604160045260246000fd5b604051908082528060200260200182016040528015611ac8578160200160208202803683370190505b509350806001600160401b03811115611af157634e487b7160e01b600052604160045260246000fd5b604051908082528060200260200182016040528015611b1a578160200160208202803683370190505b50925060005b81811015611d2157828181548110611b4857634e487b7160e01b600052603260045260246000fd5b906000526020600020906007020160010154888281518110611b7a57634e487b7160e01b600052603260045260246000fd5b602002602001018181525050828181548110611ba657634e487b7160e01b600052603260045260246000fd5b906000526020600020906007020160030154878281518110611bd857634e487b7160e01b600052603260045260246000fd5b602002602001018181525050828181548110611c0457634e487b7160e01b600052603260045260246000fd5b906000526020600020906007020160050154868281518110611c3657634e487b7160e01b600052603260045260246000fd5b602002602001018181525050828181548110611c6257634e487b7160e01b600052603260045260246000fd5b906000526020600020906007020160040154858281518110611c9457634e487b7160e01b600052603260045260246000fd5b602002602001018181525050828181548110611cc057634e487b7160e01b600052603260045260246000fd5b906000526020600020906007020160060160009054906101000a900460ff16848281518110611cff57634e487b7160e01b600052603260045260246000fd5b9115156020928302919091019091015280611d1981613df0565b915050611b20565b50505091939590929450565b60095481565b600080611d4086866127f6565b60008181526020819052604090206003015490915015611d725760405162461bcd60e51b815260040161085790613a04565b6040805160e0810182528781526020808201889052818301879052426060830152608082018690523360a0830152600160c08301526000848152808252929092208151805192939192611dc89284920190613023565b50602082810151600183015560408301518051611deb9260028501920190613023565b50606082015160038201556080820151600482015560a08201516005909101805460c0909301511515600160a01b0260ff60a01b196001600160a01b039093166001600160a01b0319909416939093179190911691909117905560008581526001602081815260408320805492830181558352822001829055611e6d85612da2565b90506000801b600282604051611e83919061346c565b9081526020016040518091039020541480611ec95750611ec985611ec4600284604051611eb0919061346c565b90815260200160405180910390205461282a565b612f11565b15611ef05781600282604051611edf919061346c565b908152604051908190036020019020555b817f57c8f3fabbfd3814f1f2935427f07b2ef1a98dae6568ae63c147e3fb0e5edea9888888604051611f24939291906136f7565b60405180910390a25090505b949350505050565b600b546001600160a01b03163314611f625760405162461bcd60e51b815260040161085790613757565b6001600160a01b038116611f885760405162461bcd60e51b815260040161085790613a32565b6001600160a01b0381166000908152600360205260409020600281015460ff166115445760028101805460ff1916600190811790915560048054918201815560009081527f8a35acfbc15ff81a39ae7d344fd709f28e8600b4aa8c65c6b64bfe7fe36bd19b90910180546001600160a01b0385166001600160a01b0319909116811790915560405190917f88e0cfea153c684860265db3d2ffbf1f58244dda3d0d74a25b398dc88c60a75391a25050565b805160208183018101805160028252928201919093012091525481565b600b546000906001600160a01b031633146120835760405162461bcd60e51b815260040161085790613757565b6000848152600160205260409020546120ae5760405162461bcd60e51b815260040161085790613c4a565b60006120ba86866127f6565b600081815260208190526040902060030154909150156120db579050611f30565b6040805160e0810182528781526020808201889052818301879052426060830152608082018690523360a0830152600160c083015260008481528082529290922081518051929391926121319284920190613023565b506020828101516001830155604083015180516121549260028501920190613023565b50606082015160038201556080820151600482015560a08201516005909101805460c0909301511515600160a01b0260ff60a01b196001600160a01b039093166001600160a01b03199094169390931791909116919091179055600085815260016020818152604083208054928301815583528220018290556121d685612da2565b90506000801b6002826040516121ec919061346c565b9081526020016040518091039020541480612219575061221985611ec4600284604051611eb0919061346c565b15612240578160028260405161222f919061346c565b908152604051908190036020019020555b817f537d379795326953c563729ba5feeb98bbb6659c866d03472a04b4ed7941f5b1888888604051611f24939291906136f7565b34600a60008282546122869190613d17565b909155505060405133907f0939f6f4877faf071412e527bc4c6d0bd65ad077e52b57334f7765265647a7f1906122bd903490613637565b60405180910390a2565b600160205281600052604060002081815481106122e357600080fd5b90600052602060002001600091509150505481565b600b546001600160a01b031633146123225760405162461bcd60e51b815260040161085790613757565b6001600160a01b03811660009081526003602052604090206002015460ff1661235d5760405162461bcd60e51b8152600401610857906139cd565b6001600160a01b0381166000908152600360205260408120600201805460ff191690555b6004548110156124bf57816001600160a01b0316600482815481106123b657634e487b7160e01b600052603260045260246000fd5b6000918252602090912001546001600160a01b031614156124ad57600480546123e190600190613d6e565b815481106123ff57634e487b7160e01b600052603260045260246000fd5b600091825260209091200154600480546001600160a01b03909216918390811061243957634e487b7160e01b600052603260045260246000fd5b9060005260206000200160006101000a8154816001600160a01b0302191690836001600160a01b03160217905550600480548061248657634e487b7160e01b600052603160045260246000fd5b600082815260209020810160001990810180546001600160a01b03191690550190556124bf565b806124b781613df0565b915050612381565b506040516001600160a01b038216907f316e376af8ad3c9ff24948b0031984714a4056dae154b476db7180bc173be88390600090a250565b60006060600060606000806000600288604051612514919061346c565b908152604051908190036020019020549050806125435760405162461bcd60e51b81526004016108579061386f565b600081815260208190526040902060018101546003820154600483015483548593859390926002850192859061257890613db5565b80601f01602080910402602001604051908101604052809291908181526020018280546125a490613db5565b80156125f15780601f106125c6576101008083540402835291602001916125f1565b820191906000526020600020905b8154815290600101906020018083116125d457829003601f168201915b5050505050945082805461260490613db5565b80601f016020809104026020016040519081016040528092919081815260200182805461263090613db5565b801561267d5780601f106126525761010080835404028352916020019161267d565b820191906000526020600020905b81548152906001019060200180831161266057829003601f168201915b50505050509250975097509750975097509750505091939550919395565b6000602081905290815260409020805481906126b690613db5565b80601f01602080910402602001604051908101604052809291908181526020018280546126e290613db5565b801561272f5780601f106127045761010080835404028352916020019161272f565b820191906000526020600020905b81548152906001019060200180831161271257829003601f168201915b50505050509080600101549080600201805461274a90613db5565b80601f016020809104026020016040519081016040528092919081815260200182805461277690613db5565b80156127c35780601f10612798576101008083540402835291602001916127c3565b820191906000526020600020905b8154815290600101906020018083116127a657829003601f168201915b5050505060038301546004840154600590940154929390929091506001600160a01b03811690600160a01b900460ff1687565b6000828260405160200161280b929190613488565b6040516020818303038152906040528051906020012090505b92915050565b600081815260208190526040902060020180546060919061284a90613db5565b80601f016020809104026020016040519081016040528092919081815260200182805461287690613db5565b801561136e5780601f106128985761010080835404028352916020019161136e565b820191906000526020600020905b8154815290600101906020018083116128a65750939695505050505050565b600b546000906001600160a01b03163314806128e95750336001600160a01b038616145b6129055760405162461bcd60e51b815260040161085790613b5d565b6001600160a01b03851660009081526003602052604090206002015460ff166129405760405162461bcd60e51b8152600401610857906139cd565b600061294d606484613d2f565b6040805160e0810182526001600160a01b0389811680835260208084018b81528486018b8152606086018b905242608087015260a08601889052600060c087018190529384526005835295832080546001808201835591855293839020865160079095020180546001600160a01b031916949095169390931784555191830191909155925180519495509193849391926129ee926002850192910190613023565b50606082015160038201556080820151600482015560a0820151600582015560c0909101516006918201805460ff191691151591909117905560008781526020918252604080822080546001818101835591845292849020855160079094020180546001600160a01b0319166001600160a01b03909416939093178355848401519083015583015180518493612a8b926002850192910190613023565b5060608201516003828101919091556080830151600483015560a0830151600583015560c0909201516006909101805460ff19169115159190911790556001600160a01b038816600090815260209190915260408120805490918290612af083613df0565b919050555082816001016000828254612b099190613d17565b90915550504260038201556040516001600160a01b038916907f0196d0533f37ea47d88e4eb66396286ef3e57c7ebd89f644475d77f1e899cace90612b51908a908790613c81565b60405180910390a250909695505050505050565b60606000606060008060008060008060008a815260200190815260200160002090506000816003015411612bab5760405162461bcd60e51b815260040161085790613a62565b600181015460038201546004830154600584015484548594936002860193909290916001600160a01b03821691600160a01b900460ff16908790612bee90613db5565b80601f0160208091040260200160405190810160405280929190818152602001828054612c1a90613db5565b8015612c675780601f10612c3c57610100808354040283529160200191612c67565b820191906000526020600020905b815481529060010190602001808311612c4a57829003601f168201915b50505050509650848054612c7a90613db5565b80601f0160208091040260200160405190810160405280929190818152602001828054612ca690613db5565b8015612cf35780601f10612cc857610100808354040283529160200191612cf3565b820191906000526020600020905b815481529060010190602001808311612cd657829003601f168201915b50505050509450975097509750975097509750975050919395979092949650565b600b546001600160a01b03163314612d3e5760405162461bcd60e51b815260040161085790613757565b6001600160a01b038116612d645760405162461bcd60e51b815260040161085790613c06565b600b80546001600160a01b0319166001600160a01b0392909216919091179055565b6006602052816000526040600020818154811061139757600080fd5b606081600080805b8351811015612e1e57838181518110612dd357634e487b7160e01b600052603260045260246000fd5b6020910101516001600160f81b031916601760f91b1415612e0c5782612df881613df0565b9350508091508260021415612e0c57612e1e565b80612e1681613df0565b915050612daa565b506002821015612e3357849350505050611376565b6000816001600160401b03811115612e5b57634e487b7160e01b600052604160045260246000fd5b6040519080825280601f01601f191660200182016040528015612e85576020820181803683370190505b50905060005b82811015612f0757848181518110612eb357634e487b7160e01b600052603260045260246000fd5b602001015160f81c60f81b828281518110612ede57634e487b7160e01b600052603260045260246000fd5b60200101906001600160f81b031916908160001a90535080612eff81613df0565b915050612e8b565b5095945050505050565b60008282825b825181108015612f275750815181105b1561301757818181518110612f4c57634e487b7160e01b600052603260045260246000fd5b602001015160f81c60f81b6001600160f81b031916838281518110612f8157634e487b7160e01b600052603260045260246000fd5b01602001516001600160f81b0319161461300557818181518110612fb557634e487b7160e01b600052603260045260246000fd5b602001015160f81c60f81b6001600160f81b031916838281518110612fea57634e487b7160e01b600052603260045260246000fd5b01602001516001600160f81b03191611935061282492505050565b8061300f81613df0565b915050612f17565b50519051119392505050565b82805461302f90613db5565b90600052602060002090601f0160209004810192826130515760008555613097565b82601f1061306a57805160ff1916838001178555613097565b82800160010185558215613097579182015b8281111561309757825182559160200191906001019061307c565b506130a39291506130a7565b5090565b5b808211156130a357600081556001016130a8565b80356001600160a01b038116811461137657600080fd5b600082601f8301126130e3578081fd5b81356001600160401b038111156130fc576130fc613e21565b61310f601f8201601f1916602001613cee565b818152846020838601011115613123578283fd5b816020850160208301379081016020019190915292915050565b60006020828403121561314e578081fd5b613157826130bc565b9392505050565b60008060408385031215613170578081fd5b613179836130bc565b946020939093013593505050565b6000806000806080858703121561319c578182fd5b6131a5856130bc565b93506020850135925060408501356001600160401b038111156131c6578283fd5b6131d2878288016130d3565b949793965093946060013593505050565b600060208083850312156131f5578182fd5b82356001600160401b038082111561320b578384fd5b818501915085601f83011261321e578384fd5b81358181111561323057613230613e21565b8381029150613240848301613cee565b8181528481019084860184860187018a101561325a578788fd5b8795505b838610156132835761326f816130bc565b83526001959095019491860191860161325e565b5098975050505050505050565b6000602082840312156132a1578081fd5b5035919050565b6000602082840312156132b9578081fd5b81356001600160401b038111156132ce578182fd5b611f30848285016130d3565b600080604083850312156132ec578182fd5b82356001600160401b03811115613301578283fd5b61330d858286016130d3565b95602094909401359450505050565b60008060008060808587031215613331578384fd5b84356001600160401b0380821115613347578586fd5b613353888389016130d3565b955060208701359450604087013591508082111561336f578384fd5b506131d2878288016130d3565b6000806040838503121561338e578182fd5b50508035926020909101359150565b6000815180845260208085019450808401835b838110156133d55781516001600160a01b0316875295820195908201906001016133b0565b509495945050505050565b6000815180845260208085019450808401835b838110156133d55781511515875295820195908201906001016133f3565b6000815180845260208085019450808401835b838110156133d557815187529582019590820190600101613424565b60008151808452613458816020860160208601613d85565b601f01601f19169290920160200192915050565b6000825161347e818460208701613d85565b9190910192915050565b6000835161349a818460208801613d85565b9190910191825250602001919050565b90565b6001600160a01b0391909116815260200190565b600060018060a01b038916825287602083015260e060408301526134e860e0830188613440565b90508560608301528460808301528360a083015282151560c083015298975050505050505050565b600060208252613157602083018461339d565b600060808252613536608083018761339d565b82810360208401526135488187613411565b9050828103604084015261355c8186613411565b9050828103606084015261357081856133e0565b979650505050505050565b6020808252825182820181905260009190848201906040850190845b818110156135b357835183529284019291840191600101613597565b50909695505050505050565b600060a082526135d260a0830188613411565b82810360208401526135e48188613411565b905082810360408401526135f88187613411565b9050828103606084015261360c8186613411565b9050828103608084015261362081856133e0565b98975050505050505050565b901515815260200190565b90815260200190565b600088825260e0602083015261365960e0830189613440565b828103604084015261366b8189613440565b6060840197909752505060808101939093526001600160a01b039190911660a0830152151560c0909101529392505050565b600087825260c060208301526136b660c0830188613440565b86604084015282810360608401526136ce8187613440565b6080840195909552505060a00152949350505050565b6000602082526131576020830184613440565b60006060825261370a6060830186613440565b84602084015282810360408401526137228185613440565b9695505050505050565b600060e0825261373f60e083018a613440565b886020840152828103604084015261366b8189613440565b60208082526025908201527f4f6e6c7920746865206f776e65722063616e2063616c6c20746869732066756e60408201526431ba34b7b760d91b606082015260800190565b60208082526017908201527f5265776172647320616c726561647920636c61696d6564000000000000000000604082015260600190565b6020808252601f908201527f4e6f20636f6e747269627574696f6e7320666f72207468697320726f756e6400604082015260600190565b60208082526019908201527f4d6f64656c20697320616c726561647920696e61637469766500000000000000604082015260600190565b60208082526014908201527352657761726420706f6f6c20697320656d70747960601b604082015260600190565b60208082526021908201527f4e6f206d6f64656c7320666f7220746869732076657273696f6e2070726566696040820152600f60fb1b606082015260800190565b6020808252602f908201527f52657761726420706f6f6c206d7573742062652066696e616c697a656420626560408201526e3337b9329030b63637b1b0ba34b7b760891b606082015260800190565b60208082526023908201527f4e6f207265776172647320617661696c61626c6520666f72207468697320726f6040820152621d5b9960ea1b606082015260800190565b6020808252600f908201526e151c985b9cd9995c8819985a5b1959608a1b604082015260600190565b6020808252818101527f52657761726420706f6f6c20697320616c72656164792066696e616c697a6564604082015260600190565b6020808252601390820152724e6f207265776172647320746f20636c61696d60681b604082015260600190565b60208082526018908201527f436c69656e74206973206e6f7420617574686f72697a65640000000000000000604082015260600190565b6020808252601490820152734d6f64656c20616c72656164792065786973747360601b604082015260600190565b602080825260169082015275496e76616c696420636c69656e74206164647265737360501b604082015260600190565b602080825260149082015273135bd9195b08191bd95cc81b9bdd08195e1a5cdd60621b604082015260600190565b60208082526028908201527f46756e64696e6720616d6f756e74206d7573742062652067726561746572207460408201526768616e207a65726f60c01b606082015260800190565b6020808252602e908201527f416c6c207265776172647320666f72207468697320726f756e6420686176652060408201526d1899595b88185b1b1bd8d85d195960921b606082015260800190565b60208082526018908201527f4e6f206d6f64656c7320666f72207468697320726f756e640000000000000000604082015260600190565b60208082526025908201527f4e6f7420617574686f72697a656420746f207265636f726420636f6e747269626040820152643aba34b7b760d91b606082015260800190565b602080825260139082015272546f74616c2073636f7265206973207a65726f60681b604082015260600190565b6020808252601d908201527f496e73756666696369656e7420636f6e74726163742062616c616e6365000000604082015260600190565b60208082526024908201527f4e6577206f776e65722063616e6e6f7420626520746865207a65726f206164646040820152637265737360e01b606082015260800190565b6020808252601e908201527f4e6f206d6f64656c7320657869737420666f72207468697320726f756e640000604082015260600190565b918252602082015260400190565b92835260208301919091521515604082015260600190565b9586526020860194909452911515604085015260608401526080830152151560a082015260c00190565b938452602084019290925260408301521515606082015260800190565b6040518181016001600160401b0381118282101715613d0f57613d0f613e21565b604052919050565b60008219821115613d2a57613d2a613e0b565b500190565b600082613d4a57634e487b7160e01b81526012600452602481fd5b500490565b6000816000190483118215151615613d6957613d69613e0b565b500290565b600082821015613d8057613d80613e0b565b500390565b60005b83811015613da0578181015183820152602001613d88565b83811115613daf576000848401525b50505050565b600281046001821680613dc957607f821691505b60208210811415613dea57634e487b7160e01b600052602260045260246000fd5b50919050565b6000600019821415613e0457613e04613e0b565b5060010190565b634e487b7160e01b600052601160045260246000fd5b634e487b7160e01b600052604160045260246000fdfea264697066735822122096e1f37e1ce0c8b935d6c47ba916958e6c3aa9a530372e387f7d34d96c499a4b64736f6c63430008000033",
  "immutableReferences": {},
  "source": "// SPDX-License-Identifier: MIT\npragma solidity ^0.8.0;\n\ncontract Federation {\n    // Model structure\n    struct Model {\n        string ipfsHash;\n        uint256 round;\n        string version;\n        uint256 timestamp;\n        uint256 participatingClients;\n        address publisher;\n        bool isActive;\n    }\n    \n    // Client contribution structure\n    struct ClientContribution {\n        uint256 contributionCount;\n        uint256 totalScore;\n        bool isAuthorized;\n        uint256 lastContributionTimestamp;\n        uint256 rewardsEarned;\n        bool rewardsClaimed;\n    }\n    \n    // Contribution record structure\n    struct ContributionRecord {\n        address clientAddress;\n        uint256 round;\n        string ipfsHash;\n        uint256 accuracy;\n        uint256 timestamp;\n        uint256 score;\n        bool rewarded;\n    }\n    \n    // Round reward pool structure\n    struct RoundRewardPool {\n        uint256 totalAmount;\n        uint256 allocatedAmount;\n        bool isFinalized;\n    }\n    \n    // Main storage for models\n    mapping(bytes32 => Model) public models;\n    \n    // Model IDs by round\n    mapping(uint256 => bytes32[]) public modelsByRound;\n    \n    // Latest model ID for each version prefix\n    mapping(string => bytes32) public latestVersions;\n    \n    // Client registry\n    mapping(address => ClientContribution) public clientRegistry;\n    \n    // Authorized client addresses\n    address[] public authorizedClients;\n    \n    // Contribution records by client address\n    mapping(address => ContributionRecord[]) public contributionRecords;\n    \n    // Contributions by round\n    mapping(uint256 => ContributionRecord[]) public roundContributions;\n    \n    // Reward pools by round\n    mapping(uint256 => RoundRewardPool) public roundRewardPools;\n    \n    // Total rewards allocated\n    uint256 public totalRewardsAllocated;\n    \n    // Total rewards claimed\n    uint256 public totalRewardsClaimed;\n    \n    // Current contract balance\n    uint256 public contractBalance;\n    \n    // Events\n    event ModelRegistered(bytes32 indexed modelId, string ipfsHash, uint256 round, string version);\n    event ModelUpdated(bytes32 indexed modelId, string ipfsHash, uint256 round, string version);\n    event ModelDeactivated(bytes32 indexed modelId);\n    event ClientAuthorized(address indexed clientAddress);\n    event ClientDeauthorized(address indexed clientAddress);\n    event ContributionRecorded(address indexed clientAddress, uint256 round, uint256 score);\n    event RewardAllocated(address indexed clientAddress, uint256 amount, uint256 round);\n    event RewardClaimed(address indexed clientAddress, uint256 amount);\n    event RewardPoolFunded(uint256 indexed round, uint256 amount);\n    event RewardPoolFinalized(uint256 indexed round, uint256 totalAmount);\n    event ContractFunded(address indexed from, uint256 amount);\n    event EmergencyWithdrawal(address indexed to, uint256 amount);\n    \n    // Owner of the contract\n    address public owner;\n    \n    constructor() {\n        owner = msg.sender;\n        contractBalance = 0;\n    }\n    \n    // Modifier to restrict certain functions to the owner\n    modifier onlyOwner() {\n        require(msg.sender == owner, \"Only the owner can call this function\");\n        _;\n    }\n    \n    // Receive function to allow the contract to receive ETH\n    receive() external payable {\n        contractBalance += msg.value;\n        emit ContractFunded(msg.sender, msg.value);\n    }\n    \n    // Fallback function\n    fallback() external payable {\n        contractBalance += msg.value;\n        emit ContractFunded(msg.sender, msg.value);\n    }\n    \n    // Function to fund the contract\n    function fundContract() external payable {\n        contractBalance += msg.value;\n        emit ContractFunded(msg.sender, msg.value);\n    }\n    \n    // Function to fund a specific round's reward pool\n    function fundRoundRewardPool(uint256 round) external payable onlyOwner {\n        require(msg.value > 0, \"Funding amount must be greater than zero\");\n        \n        RoundRewardPool storage pool = roundRewardPools[round];\n        pool.totalAmount += msg.value;\n        contractBalance += msg.value;\n        \n        emit RewardPoolFunded(round, msg.value);\n    }\n    \n    // Finalize a round's reward pool (prevents additional funding)\n    function finalizeRoundRewardPool(uint256 round) external onlyOwner {\n        RoundRewardPool storage pool = roundRewardPools[round];\n        require(pool.totalAmount > 0, \"Reward pool is empty\");\n        require(!pool.isFinalized, \"Reward pool is already finalized\");\n        \n        pool.isFinalized = true;\n        \n        emit RewardPoolFinalized(round, pool.totalAmount);\n    }\n    \n    // Generate a unique model ID from the IPFS hash and round\n    function generateModelId(string memory ipfsHash, uint256 round) public pure returns (bytes32) {\n        return keccak256(abi.encodePacked(ipfsHash, round));\n    }\n    \n\n    //////////////////////////////////////////////////////////\n    ///////////   MODEL MANAGEMENT FUNCTIONS  ////////////////\n    //////////////////////////////////////////////////////////\n    // Register a new model\n    function registerModel(\n        string memory ipfsHash, \n        uint256 round, \n        string memory version,\n        uint256 participatingClients\n    ) public returns (bytes32) {\n        // Generate model ID\n        bytes32 modelId = generateModelId(ipfsHash, round);\n        \n        // Ensure it doesn't already exist\n        require(models[modelId].timestamp == 0, \"Model already exists\");\n        \n        // Store the model\n        models[modelId] = Model({\n            ipfsHash: ipfsHash,\n            round: round,\n            version: version,\n            timestamp: block.timestamp,\n            participatingClients: participatingClients,\n            publisher: msg.sender,\n            isActive: true\n        });\n        \n        // Add to round mapping\n        modelsByRound[round].push(modelId);\n        \n        // Update latest version\n        string memory versionPrefix = getVersionPrefix(version);\n        \n        // If there's no latest version for this prefix or this one is newer\n        if (latestVersions[versionPrefix] == bytes32(0) || \n            compareVersions(version, getVersionFromModelId(latestVersions[versionPrefix]))) {\n            latestVersions[versionPrefix] = modelId;\n        }\n        \n        // Emit event\n        emit ModelRegistered(modelId, ipfsHash, round, version);\n        \n        return modelId;\n    }\n    \n    // Update an existing model by round\n    function updateModelByRound(\n        string memory ipfsHash, \n        uint256 round, \n        string memory version,\n        uint256 participatingClients\n    ) public onlyOwner returns (bytes32) {\n        // Check if any model exists for this round\n        require(modelsByRound[round].length > 0, \"No models exist for this round\");\n        \n        // Generate new model ID\n        bytes32 modelId = generateModelId(ipfsHash, round);\n        \n        // Check if this specific model already exists\n        if (models[modelId].timestamp > 0) {\n            // Model with this exact hash and round already exists\n            // Just return the existing ID\n            return modelId;\n        }\n        \n        // Store the model\n        models[modelId] = Model({\n            ipfsHash: ipfsHash,\n            round: round,\n            version: version,\n            timestamp: block.timestamp,\n            participatingClients: participatingClients,\n            publisher: msg.sender,\n            isActive: true\n        });\n        \n        // Add to round mapping\n        modelsByRound[round].push(modelId);\n        \n        // Update latest version\n        string memory versionPrefix = getVersionPrefix(version);\n        \n        // If there's no latest version for this prefix or this one is newer\n        if (latestVersions[versionPrefix] == bytes32(0) || \n            compareVersions(version, getVersionFromModelId(latestVersions[versionPrefix]))) {\n            latestVersions[versionPrefix] = modelId;\n        }\n        \n        // Emit event\n        emit ModelUpdated(modelId, ipfsHash, round, version);\n        \n        return modelId;\n    }\n\n    // Get the latest model for a specific version prefix\n    function getLatestModel(string memory versionPrefix) public view returns (\n        bytes32 modelId,\n        string memory ipfsHash,\n        uint256 round,\n        string memory version,\n        uint256 timestamp,\n        uint256 participatingClients\n    ) {\n        bytes32 id = latestVersions[versionPrefix];\n        require(id != bytes32(0), \"No models for this version prefix\");\n        \n        Model storage model = models[id];\n        return (\n            id,\n            model.ipfsHash,\n            model.round,\n            model.version,\n            model.timestamp,\n            model.participatingClients\n        );\n    }\n    \n    // Get all models for a specific round\n    function getModelsByRound(uint256 round) public view returns (bytes32[] memory) {\n        return modelsByRound[round];\n    }\n    \n    // Get the most recent model for a specific round\n    function getLatestModelByRound(uint256 round) public view returns (\n        bytes32 modelId,\n        string memory ipfsHash,\n        string memory version,\n        uint256 timestamp,\n        uint256 participatingClients,\n        address publisher,\n        bool isActive\n    ) {\n        require(modelsByRound[round].length > 0, \"No models for this round\");\n        \n        // Get the last model in the array (most recently added)\n        bytes32 id = modelsByRound[round][modelsByRound[round].length - 1];\n        Model storage model = models[id];\n        \n        return (\n            id,\n            model.ipfsHash,\n            model.version,\n            model.timestamp,\n            model.participatingClients,\n            model.publisher,\n            model.isActive\n        );\n    }\n    \n    // Get model details\n    function getModelDetails(bytes32 modelId) public view returns (\n        string memory ipfsHash,\n        uint256 round,\n        string memory version,\n        uint256 timestamp,\n        uint256 participatingClients,\n        address publisher,\n        bool isActive\n    ) {\n        Model storage model = models[modelId];\n        require(model.timestamp > 0, \"Model does not exist\");\n        \n        return (\n            model.ipfsHash,\n            model.round,\n            model.version,\n            model.timestamp,\n            model.participatingClients,\n            model.publisher,\n            model.isActive\n        );\n    }\n    \n    // Get version prefix (e.g., \"1.0\" from \"1.0.3\")\n    function getVersionPrefix(string memory version) internal pure returns (string memory) {\n        // This is a simplified implementation that assumes format major.minor.patch\n        bytes memory versionBytes = bytes(version);\n        uint dotCount = 0;\n        uint lastDotPos = 0;\n        \n        for (uint i = 0; i < versionBytes.length; i++) {\n            if (versionBytes[i] == '.') {\n                dotCount++;\n                lastDotPos = i;\n                if (dotCount == 2) break;\n            }\n        }\n        \n        if (dotCount < 2) return version; // No patch number found\n        \n        // Create prefix (major.minor)\n        bytes memory prefix = new bytes(lastDotPos);\n        for (uint i = 0; i < lastDotPos; i++) {\n            prefix[i] = versionBytes[i];\n        }\n        \n        return string(prefix);\n    }\n    \n    // Compare versions (returns true if v1 is newer than v2)\n    function compareVersions(string memory v1, string memory v2) internal pure returns (bool) {\n        // Simple string comparison - assumes properly formatted semantic versions\n        // In a production environment, this would parse and compare version components\n        bytes memory b1 = bytes(v1);\n        bytes memory b2 = bytes(v2);\n        \n        for (uint i = 0; i < b1.length && i < b2.length; i++) {\n            if (b1[i] != b2[i]) {\n                return b1[i] > b2[i];\n            }\n        }\n        \n        return b1.length > b2.length;\n    }\n    \n    // Get the version from a model ID\n    function getVersionFromModelId(bytes32 modelId) public view returns (string memory) {\n        return models[modelId].version;\n    }\n    \n    \n    \n    // Deactivate a model (e.g., if it's found to be problematic)\n    function deactivateModel(bytes32 modelId) public onlyOwner {\n        require(models[modelId].timestamp > 0, \"Model does not exist\");\n        require(models[modelId].isActive, \"Model is already inactive\");\n        \n        models[modelId].isActive = false;\n        \n        emit ModelDeactivated(modelId);\n    }\n    \n    //////////////////////////////////////////////////////////\n    ///////////   CLIENT MANAGEMENT FUNCTIONS  ////////////////\n    //////////////////////////////////////////////////////////\n    // Authorize a client to participate in federated learning\n    function authorizeClient(address clientAddress) public onlyOwner {\n        require(clientAddress != address(0), \"Invalid client address\");\n        \n        ClientContribution storage client = clientRegistry[clientAddress];\n        \n        if (!client.isAuthorized) {\n            client.isAuthorized = true;\n            authorizedClients.push(clientAddress);\n            \n            emit ClientAuthorized(clientAddress);\n        }\n    }\n    \n    // Authorize multiple clients at once\n    function authorizeClients(address[] memory clientAddresses) public onlyOwner {\n        for (uint i = 0; i < clientAddresses.length; i++) {\n            authorizeClient(clientAddresses[i]);\n        }\n    }\n    \n    // Deauthorize a client\n    function deauthorizeClient(address clientAddress) public onlyOwner {\n        require(clientRegistry[clientAddress].isAuthorized, \"Client is not authorized\");\n        \n        clientRegistry[clientAddress].isAuthorized = false;\n        \n        // Remove from authorized clients array\n        // This is an inefficient implementation but works for moderate numbers of clients\n        for (uint i = 0; i < authorizedClients.length; i++) {\n            if (authorizedClients[i] == clientAddress) {\n                // Move the last element to this position and pop the last element\n                authorizedClients[i] = authorizedClients[authorizedClients.length - 1];\n                authorizedClients.pop();\n                break;\n            }\n        }\n        \n        emit ClientDeauthorized(clientAddress);\n    }\n    \n    // Check if a client is authorized\n    function isClientAuthorized(address clientAddress) public view returns (bool) {\n        return clientRegistry[clientAddress].isAuthorized;\n    }\n    \n    // Get all authorized clients\n    function getAllAuthorizedClients() public view returns (address[] memory) {\n        return authorizedClients;\n    }\n    \n    //////////////////////////////////////////////////////////\n    ///////////   REWARD MANAGEMENT FUNCTIONS  ///////////////\n    //////////////////////////////////////////////////////////\n    \n    // Allocate rewards to clients based on their contributions for a round\n    function allocateRewardsForRound(uint256 round) public onlyOwner {\n        ContributionRecord[] storage contributions = roundContributions[round];\n        require(contributions.length > 0, \"No contributions for this round\");\n        \n        RoundRewardPool storage pool = roundRewardPools[round];\n        require(pool.totalAmount > 0, \"No rewards available for this round\");\n        require(pool.isFinalized, \"Reward pool must be finalized before allocation\");\n        \n        // Calculate total score for this round\n        uint256 totalScore = 0;\n        for (uint i = 0; i < contributions.length; i++) {\n            if (!contributions[i].rewarded) {\n                totalScore += contributions[i].score;\n            }\n        }\n        \n        require(totalScore > 0, \"Total score is zero\");\n        \n        uint256 availableRewards = pool.totalAmount - pool.allocatedAmount;\n        require(availableRewards > 0, \"All rewards for this round have been allocated\");\n        \n        // Allocate rewards proportionally to each client's score\n        for (uint i = 0; i < contributions.length; i++) {\n            if (!contributions[i].rewarded) {\n                ContributionRecord storage contribution = contributions[i];\n                \n                // Calculate reward amount\n                uint256 rewardAmount = (contribution.score * availableRewards) / totalScore;\n                \n                // Update contribution record\n                contribution.rewarded = true;\n                \n                // Update client's rewards\n                ClientContribution storage client = clientRegistry[contribution.clientAddress];\n                client.rewardsEarned += rewardAmount;\n                \n                // Update reward pool\n                pool.allocatedAmount += rewardAmount;\n                \n                // Update total rewards allocated\n                totalRewardsAllocated += rewardAmount;\n                \n                emit RewardAllocated(contribution.clientAddress, rewardAmount, round);\n            }\n        }\n    }\n    \n    // Allow client to claim rewards (transfers actual ETH)\n    function claimRewards() public {\n        ClientContribution storage client = clientRegistry[msg.sender];\n        require(client.isAuthorized, \"Client is not authorized\");\n        require(client.rewardsEarned > 0, \"No rewards to claim\");\n        require(!client.rewardsClaimed, \"Rewards already claimed\");\n        \n        uint256 amount = client.rewardsEarned;\n        require(amount <= contractBalance, \"Insufficient contract balance\");\n        \n        // Mark rewards as claimed before transfer to prevent reentrancy\n        client.rewardsClaimed = true;\n        contractBalance -= amount;\n        totalRewardsClaimed += amount;\n        \n        // Transfer ETH to the client\n        (bool success, ) = payable(msg.sender).call{value: amount}(\"\");\n        require(success, \"Transfer failed\");\n        \n        emit RewardClaimed(msg.sender, amount);\n    }\n    \n    // Get available rewards for a client\n    function getAvailableRewards(address clientAddress) public view returns (uint256) {\n        ClientContribution storage client = clientRegistry[clientAddress];\n        if (!client.isAuthorized || client.rewardsClaimed) {\n            return 0;\n        }\n        return client.rewardsEarned;\n    }\n    \n    // Emergency withdrawal function for the owner\n    function emergencyWithdraw(uint256 amount) public onlyOwner {\n        require(amount <= contractBalance, \"Insufficient contract balance\");\n        \n        contractBalance -= amount;\n        \n        // Transfer ETH to the owner\n        (bool success, ) = payable(owner).call{value: amount}(\"\");\n        require(success, \"Transfer failed\");\n        \n        emit EmergencyWithdrawal(owner, amount);\n    }\n    \n\n    //////////////////////////////////////////////////////////\n    ////////  CONTRIBUTION MANAGEMENT FUNCTIONS  /////////////\n    //////////////////////////////////////////////////////////\n        // Record a client's contribution\n    function recordContribution(\n        address clientAddress,\n        uint256 round,\n        string memory ipfsHash,\n        uint256 accuracy // Accuracy multiplied by 10000 (e.g., 95.67% = 9567)\n    ) public returns (uint256) {\n        // Only owner or the client itself can record a contribution\n        require(msg.sender == owner || msg.sender == clientAddress, \"Not authorized to record contribution\");\n        \n        // Check if client is authorized\n        require(clientRegistry[clientAddress].isAuthorized, \"Client is not authorized\");\n        \n        // Calculate contribution score (can be modified with more complex formulas)\n        // Simple linear scoring: score = accuracy / 100 (to get a 0-100 scale)\n        uint256 score = accuracy / 100;\n        \n        // Create contribution record\n        ContributionRecord memory record = ContributionRecord({\n            clientAddress: clientAddress,\n            round: round,\n            ipfsHash: ipfsHash,\n            accuracy: accuracy,\n            timestamp: block.timestamp,\n            score: score,\n            rewarded: false\n        });\n        \n        // Add to client's contribution records\n        contributionRecords[clientAddress].push(record);\n        \n        // Add to round contributions\n        roundContributions[round].push(record);\n        \n        // Update client metrics\n        ClientContribution storage client = clientRegistry[clientAddress];\n        client.contributionCount++;\n        client.totalScore += score;\n        client.lastContributionTimestamp = block.timestamp;\n        \n        emit ContributionRecorded(clientAddress, round, score);\n        \n        return score;\n    }\n\n    // Get client contribution details\n    function getClientContribution(address clientAddress) public view returns (\n        uint256 contributionCount,\n        uint256 totalScore,\n        bool isAuthorized,\n        uint256 lastContributionTimestamp,\n        uint256 rewardsEarned,\n        bool rewardsClaimed\n    ) {\n        ClientContribution storage client = clientRegistry[clientAddress];\n        return (\n            client.contributionCount,\n            client.totalScore,\n            client.isAuthorized,\n            client.lastContributionTimestamp,\n            client.rewardsEarned,\n            client.rewardsClaimed\n        );\n    }\n    \n    // Get client contribution records\n    function getClientContributionRecords(address clientAddress) public view returns (\n        uint256[] memory rounds,\n        uint256[] memory accuracies,\n        uint256[] memory scores,\n        uint256[] memory timestamps,\n        bool[] memory rewarded\n    ) {\n        ContributionRecord[] storage records = contributionRecords[clientAddress];\n        uint256 length = records.length;\n        \n        rounds = new uint256[](length);\n        accuracies = new uint256[](length);\n        scores = new uint256[](length);\n        timestamps = new uint256[](length);\n        rewarded = new bool[](length);\n        \n        for (uint i = 0; i < length; i++) {\n            rounds[i] = records[i].round;\n            accuracies[i] = records[i].accuracy;\n            scores[i] = records[i].score;\n            timestamps[i] = records[i].timestamp;\n            rewarded[i] = records[i].rewarded;\n        }\n        \n        return (rounds, accuracies, scores, timestamps, rewarded);\n    }\n    \n    // Get contributions for a specific round\n    function getRoundContributions(uint256 round) public view returns (\n        address[] memory clients,\n        uint256[] memory accuracies,\n        uint256[] memory scores,\n        bool[] memory rewarded\n    ) {\n        ContributionRecord[] storage records = roundContributions[round];\n        uint256 length = records.length;\n        \n        clients = new address[](length);\n        accuracies = new uint256[](length);\n        scores = new uint256[](length);\n        rewarded = new bool[](length);\n        \n        for (uint i = 0; i < length; i++) {\n            clients[i] = records[i].clientAddress;\n            accuracies[i] = records[i].accuracy;\n            scores[i] = records[i].score;\n            rewarded[i] = records[i].rewarded;\n        }\n        \n        return (clients, accuracies, scores, rewarded);\n    }\n    \n    // Get round reward pool details\n    function getRoundRewardPool(uint256 round) public view returns (\n        uint256 totalAmount,\n        uint256 allocatedAmount,\n        uint256 remainingAmount,\n        bool isFinalized\n    ) {\n        RoundRewardPool storage pool = roundRewardPools[round];\n        return (\n            pool.totalAmount,\n            pool.allocatedAmount,\n            pool.totalAmount - pool.allocatedAmount,\n            pool.isFinalized\n        );\n    }\n    \n    // Update contract owner\n    function transferOwnership(address newOwner) public onlyOwner {\n        require(newOwner != address(0), \"New owner cannot be the zero address\");\n        owner = newOwner;\n    }\n    \n    // Get total number of authorized clients\n    function getAuthorizedClientCount() public view returns (uint256) {\n        return authorizedClients.length;\n    }\n}",
  "sourcePath": "/home/cam/v2-flw/blockchain/contracts/Federation.sol",
  "compiler": {
    "name": "solc",
    "version": "0.8.0+commit.c7dfd78e.Emscripten.clang"
  },
  "schemaVersion": "3.4.16",
  "updatedAt": "2025-04-24T15:25:13.356Z",
  "networkType": "ethereum",
  "devdoc": {
    "kind": "dev",
    "methods": {},
    "version": 1
  },
  "userdoc": {
    "kind": "user",
    "methods": {},
    "version": 1
  }
}