{
  "contractName": "Federation",
  "abi": [
    {
      "inputs": [],
      "stateMutability": "nonpayable",
      "type": "constructor"
    },
    {
      "anonymous": false,
      "inputs": [
        {
          "indexed": true,
          "internalType": "address",
          "name": "clientAddress",
          "type": "address"
        }
      ],
      "name": "ClientAuthorized",
      "type": "event"
    },
    {
      "anonymous": false,
      "inputs": [
        {
          "indexed": true,
          "internalType": "address",
          "name": "clientAddress",
          "type": "address"
        }
      ],
      "name": "ClientDeauthorized",
      "type": "event"
    },
    {
      "anonymous": false,
      "inputs": [
        {
          "indexed": true,
          "internalType": "address",
          "name": "clientAddress",
          "type": "address"
        },
        {
          "indexed": false,
          "internalType": "uint256",
          "name": "round",
          "type": "uint256"
        },
        {
          "indexed": false,
          "internalType": "uint256",
          "name": "score",
          "type": "uint256"
        }
      ],
      "name": "ContributionRecorded",
      "type": "event"
    },
    {
      "anonymous": false,
      "inputs": [
        {
          "indexed": true,
          "internalType": "bytes32",
          "name": "modelId",
          "type": "bytes32"
        }
      ],
      "name": "ModelDeactivated",
      "type": "event"
    },
    {
      "anonymous": false,
      "inputs": [
        {
          "indexed": true,
          "internalType": "bytes32",
          "name": "modelId",
          "type": "bytes32"
        },
        {
          "indexed": false,
          "internalType": "string",
          "name": "ipfsHash",
          "type": "string"
        },
        {
          "indexed": false,
          "internalType": "uint256",
          "name": "round",
          "type": "uint256"
        },
        {
          "indexed": false,
          "internalType": "string",
          "name": "version",
          "type": "string"
        }
      ],
      "name": "ModelRegistered",
      "type": "event"
    },
    {
      "anonymous": false,
      "inputs": [
        {
          "indexed": true,
          "internalType": "bytes32",
          "name": "modelId",
          "type": "bytes32"
        },
        {
          "indexed": false,
          "internalType": "string",
          "name": "ipfsHash",
          "type": "string"
        },
        {
          "indexed": false,
          "internalType": "uint256",
          "name": "round",
          "type": "uint256"
        },
        {
          "indexed": false,
          "internalType": "string",
          "name": "version",
          "type": "string"
        }
      ],
      "name": "ModelUpdated",
      "type": "event"
    },
    {
      "anonymous": false,
      "inputs": [
        {
          "indexed": true,
          "internalType": "address",
          "name": "clientAddress",
          "type": "address"
        },
        {
          "indexed": false,
          "internalType": "uint256",
          "name": "amount",
          "type": "uint256"
        }
      ],
      "name": "RewardAllocated",
      "type": "event"
    },
    {
      "anonymous": false,
      "inputs": [
        {
          "indexed": true,
          "internalType": "address",
          "name": "clientAddress",
          "type": "address"
        },
        {
          "indexed": false,
          "internalType": "uint256",
          "name": "amount",
          "type": "uint256"
        }
      ],
      "name": "RewardClaimed",
      "type": "event"
    },
    {
      "inputs": [
        {
          "internalType": "uint256",
          "name": "",
          "type": "uint256"
        }
      ],
      "name": "authorizedClients",
      "outputs": [
        {
          "internalType": "address",
          "name": "",
          "type": "address"
        }
      ],
      "stateMutability": "view",
      "type": "function",
      "constant": true
    },
    {
      "inputs": [
        {
          "internalType": "address",
          "name": "",
          "type": "address"
        }
      ],
      "name": "clientRegistry",
      "outputs": [
        {
          "internalType": "uint256",
          "name": "contributionCount",
          "type": "uint256"
        },
        {
          "internalType": "uint256",
          "name": "totalScore",
          "type": "uint256"
        },
        {
          "internalType": "bool",
          "name": "isAuthorized",
          "type": "bool"
        },
        {
          "internalType": "uint256",
          "name": "lastContributionTimestamp",
          "type": "uint256"
        },
        {
          "internalType": "uint256",
          "name": "rewardsEarned",
          "type": "uint256"
        },
        {
          "internalType": "bool",
          "name": "rewardsClaimed",
          "type": "bool"
        }
      ],
      "stateMutability": "view",
      "type": "function",
      "constant": true
    },
    {
      "inputs": [
        {
          "internalType": "address",
          "name": "",
          "type": "address"
        },
        {
          "internalType": "uint256",
          "name": "",
          "type": "uint256"
        }
      ],
      "name": "contributionRecords",
      "outputs": [
        {
          "internalType": "address",
          "name": "clientAddress",
          "type": "address"
        },
        {
          "internalType": "uint256",
          "name": "round",
          "type": "uint256"
        },
        {
          "internalType": "string",
          "name": "ipfsHash",
          "type": "string"
        },
        {
          "internalType": "uint256",
          "name": "accuracy",
          "type": "uint256"
        },
        {
          "internalType": "uint256",
          "name": "timestamp",
          "type": "uint256"
        },
        {
          "internalType": "uint256",
          "name": "score",
          "type": "uint256"
        },
        {
          "internalType": "bool",
          "name": "rewarded",
          "type": "bool"
        }
      ],
      "stateMutability": "view",
      "type": "function",
      "constant": true
    },
    {
      "inputs": [
        {
          "internalType": "string",
          "name": "",
          "type": "string"
        }
      ],
      "name": "latestVersions",
      "outputs": [
        {
          "internalType": "bytes32",
          "name": "",
          "type": "bytes32"
        }
      ],
      "stateMutability": "view",
      "type": "function",
      "constant": true
    },
    {
      "inputs": [
        {
          "internalType": "bytes32",
          "name": "",
          "type": "bytes32"
        }
      ],
      "name": "models",
      "outputs": [
        {
          "internalType": "string",
          "name": "ipfsHash",
          "type": "string"
        },
        {
          "internalType": "uint256",
          "name": "round",
          "type": "uint256"
        },
        {
          "internalType": "string",
          "name": "version",
          "type": "string"
        },
        {
          "internalType": "uint256",
          "name": "timestamp",
          "type": "uint256"
        },
        {
          "internalType": "uint256",
          "name": "participatingClients",
          "type": "uint256"
        },
        {
          "internalType": "address",
          "name": "publisher",
          "type": "address"
        },
        {
          "internalType": "bool",
          "name": "isActive",
          "type": "bool"
        }
      ],
      "stateMutability": "view",
      "type": "function",
      "constant": true
    },
    {
      "inputs": [
        {
          "internalType": "uint256",
          "name": "",
          "type": "uint256"
        },
        {
          "internalType": "uint256",
          "name": "",
          "type": "uint256"
        }
      ],
      "name": "modelsByRound",
      "outputs": [
        {
          "internalType": "bytes32",
          "name": "",
          "type": "bytes32"
        }
      ],
      "stateMutability": "view",
      "type": "function",
      "constant": true
    },
    {
      "inputs": [],
      "name": "owner",
      "outputs": [
        {
          "internalType": "address",
          "name": "",
          "type": "address"
        }
      ],
      "stateMutability": "view",
      "type": "function",
      "constant": true
    },
    {
      "inputs": [
        {
          "internalType": "uint256",
          "name": "",
          "type": "uint256"
        },
        {
          "internalType": "uint256",
          "name": "",
          "type": "uint256"
        }
      ],
      "name": "roundContributions",
      "outputs": [
        {
          "internalType": "address",
          "name": "clientAddress",
          "type": "address"
        },
        {
          "internalType": "uint256",
          "name": "round",
          "type": "uint256"
        },
        {
          "internalType": "string",
          "name": "ipfsHash",
          "type": "string"
        },
        {
          "internalType": "uint256",
          "name": "accuracy",
          "type": "uint256"
        },
        {
          "internalType": "uint256",
          "name": "timestamp",
          "type": "uint256"
        },
        {
          "internalType": "uint256",
          "name": "score",
          "type": "uint256"
        },
        {
          "internalType": "bool",
          "name": "rewarded",
          "type": "bool"
        }
      ],
      "stateMutability": "view",
      "type": "function",
      "constant": true
    },
    {
      "inputs": [],
      "name": "totalRewardsAllocated",
      "outputs": [
        {
          "internalType": "uint256",
          "name": "",
          "type": "uint256"
        }
      ],
      "stateMutability": "view",
      "type": "function",
      "constant": true
    },
    {
      "inputs": [
        {
          "internalType": "string",
          "name": "ipfsHash",
          "type": "string"
        },
        {
          "internalType": "uint256",
          "name": "round",
          "type": "uint256"
        }
      ],
      "name": "generateModelId",
      "outputs": [
        {
          "internalType": "bytes32",
          "name": "",
          "type": "bytes32"
        }
      ],
      "stateMutability": "pure",
      "type": "function",
      "constant": true
    },
    {
      "inputs": [
        {
          "internalType": "string",
          "name": "ipfsHash",
          "type": "string"
        },
        {
          "internalType": "uint256",
          "name": "round",
          "type": "uint256"
        },
        {
          "internalType": "string",
          "name": "version",
          "type": "string"
        },
        {
          "internalType": "uint256",
          "name": "participatingClients",
          "type": "uint256"
        }
      ],
      "name": "registerModel",
      "outputs": [
        {
          "internalType": "bytes32",
          "name": "",
          "type": "bytes32"
        }
      ],
      "stateMutability": "nonpayable",
      "type": "function"
    },
    {
      "inputs": [
        {
          "internalType": "string",
          "name": "ipfsHash",
          "type": "string"
        },
        {
          "internalType": "uint256",
          "name": "round",
          "type": "uint256"
        },
        {
          "internalType": "string",
          "name": "version",
          "type": "string"
        },
        {
          "internalType": "uint256",
          "name": "participatingClients",
          "type": "uint256"
        }
      ],
      "name": "updateModelByRound",
      "outputs": [
        {
          "internalType": "bytes32",
          "name": "",
          "type": "bytes32"
        }
      ],
      "stateMutability": "nonpayable",
      "type": "function"
    },
    {
      "inputs": [
        {
          "internalType": "bytes32",
          "name": "modelId",
          "type": "bytes32"
        }
      ],
      "name": "getVersionFromModelId",
      "outputs": [
        {
          "internalType": "string",
          "name": "",
          "type": "string"
        }
      ],
      "stateMutability": "view",
      "type": "function",
      "constant": true
    },
    {
      "inputs": [
        {
          "internalType": "string",
          "name": "versionPrefix",
          "type": "string"
        }
      ],
      "name": "getLatestModel",
      "outputs": [
        {
          "internalType": "bytes32",
          "name": "modelId",
          "type": "bytes32"
        },
        {
          "internalType": "string",
          "name": "ipfsHash",
          "type": "string"
        },
        {
          "internalType": "uint256",
          "name": "round",
          "type": "uint256"
        },
        {
          "internalType": "string",
          "name": "version",
          "type": "string"
        },
        {
          "internalType": "uint256",
          "name": "timestamp",
          "type": "uint256"
        },
        {
          "internalType": "uint256",
          "name": "participatingClients",
          "type": "uint256"
        }
      ],
      "stateMutability": "view",
      "type": "function",
      "constant": true
    },
    {
      "inputs": [
        {
          "internalType": "uint256",
          "name": "round",
          "type": "uint256"
        }
      ],
      "name": "getModelsByRound",
      "outputs": [
        {
          "internalType": "bytes32[]",
          "name": "",
          "type": "bytes32[]"
        }
      ],
      "stateMutability": "view",
      "type": "function",
      "constant": true
    },
    {
      "inputs": [
        {
          "internalType": "uint256",
          "name": "round",
          "type": "uint256"
        }
      ],
      "name": "getLatestModelByRound",
      "outputs": [
        {
          "internalType": "bytes32",
          "name": "modelId",
          "type": "bytes32"
        },
        {
          "internalType": "string",
          "name": "ipfsHash",
          "type": "string"
        },
        {
          "internalType": "string",
          "name": "version",
          "type": "string"
        },
        {
          "internalType": "uint256",
          "name": "timestamp",
          "type": "uint256"
        },
        {
          "internalType": "uint256",
          "name": "participatingClients",
          "type": "uint256"
        },
        {
          "internalType": "address",
          "name": "publisher",
          "type": "address"
        },
        {
          "internalType": "bool",
          "name": "isActive",
          "type": "bool"
        }
      ],
      "stateMutability": "view",
      "type": "function",
      "constant": true
    },
    {
      "inputs": [
        {
          "internalType": "bytes32",
          "name": "modelId",
          "type": "bytes32"
        }
      ],
      "name": "getModelDetails",
      "outputs": [
        {
          "internalType": "string",
          "name": "ipfsHash",
          "type": "string"
        },
        {
          "internalType": "uint256",
          "name": "round",
          "type": "uint256"
        },
        {
          "internalType": "string",
          "name": "version",
          "type": "string"
        },
        {
          "internalType": "uint256",
          "name": "timestamp",
          "type": "uint256"
        },
        {
          "internalType": "uint256",
          "name": "participatingClients",
          "type": "uint256"
        },
        {
          "internalType": "address",
          "name": "publisher",
          "type": "address"
        },
        {
          "internalType": "bool",
          "name": "isActive",
          "type": "bool"
        }
      ],
      "stateMutability": "view",
      "type": "function",
      "constant": true
    },
    {
      "inputs": [
        {
          "internalType": "bytes32",
          "name": "modelId",
          "type": "bytes32"
        }
      ],
      "name": "deactivateModel",
      "outputs": [],
      "stateMutability": "nonpayable",
      "type": "function"
    },
    {
      "inputs": [
        {
          "internalType": "address",
          "name": "clientAddress",
          "type": "address"
        }
      ],
      "name": "authorizeClient",
      "outputs": [],
      "stateMutability": "nonpayable",
      "type": "function"
    },
    {
      "inputs": [
        {
          "internalType": "address[]",
          "name": "clientAddresses",
          "type": "address[]"
        }
      ],
      "name": "authorizeClients",
      "outputs": [],
      "stateMutability": "nonpayable",
      "type": "function"
    },
    {
      "inputs": [
        {
          "internalType": "address",
          "name": "clientAddress",
          "type": "address"
        }
      ],
      "name": "deauthorizeClient",
      "outputs": [],
      "stateMutability": "nonpayable",
      "type": "function"
    },
    {
      "inputs": [
        {
          "internalType": "address",
          "name": "clientAddress",
          "type": "address"
        }
      ],
      "name": "isClientAuthorized",
      "outputs": [
        {
          "internalType": "bool",
          "name": "",
          "type": "bool"
        }
      ],
      "stateMutability": "view",
      "type": "function",
      "constant": true
    },
    {
      "inputs": [],
      "name": "getAllAuthorizedClients",
      "outputs": [
        {
          "internalType": "address[]",
          "name": "",
          "type": "address[]"
        }
      ],
      "stateMutability": "view",
      "type": "function",
      "constant": true
    },
    {
      "inputs": [
        {
          "internalType": "address",
          "name": "clientAddress",
          "type": "address"
        },
        {
          "internalType": "uint256",
          "name": "round",
          "type": "uint256"
        },
        {
          "internalType": "string",
          "name": "ipfsHash",
          "type": "string"
        },
        {
          "internalType": "uint256",
          "name": "accuracy",
          "type": "uint256"
        }
      ],
      "name": "recordContribution",
      "outputs": [
        {
          "internalType": "uint256",
          "name": "",
          "type": "uint256"
        }
      ],
      "stateMutability": "nonpayable",
      "type": "function"
    },
    {
      "inputs": [
        {
          "internalType": "uint256",
          "name": "round",
          "type": "uint256"
        },
        {
          "internalType": "uint256",
          "name": "totalReward",
          "type": "uint256"
        }
      ],
      "name": "allocateRewardsForRound",
      "outputs": [],
      "stateMutability": "nonpayable",
      "type": "function"
    },
    {
      "inputs": [],
      "name": "claimRewards",
      "outputs": [],
      "stateMutability": "nonpayable",
      "type": "function"
    },
    {
      "inputs": [
        {
          "internalType": "address",
          "name": "clientAddress",
          "type": "address"
        }
      ],
      "name": "getClientContribution",
      "outputs": [
        {
          "internalType": "uint256",
          "name": "contributionCount",
          "type": "uint256"
        },
        {
          "internalType": "uint256",
          "name": "totalScore",
          "type": "uint256"
        },
        {
          "internalType": "bool",
          "name": "isAuthorized",
          "type": "bool"
        },
        {
          "internalType": "uint256",
          "name": "lastContributionTimestamp",
          "type": "uint256"
        },
        {
          "internalType": "uint256",
          "name": "rewardsEarned",
          "type": "uint256"
        },
        {
          "internalType": "bool",
          "name": "rewardsClaimed",
          "type": "bool"
        }
      ],
      "stateMutability": "view",
      "type": "function",
      "constant": true
    },
    {
      "inputs": [
        {
          "internalType": "address",
          "name": "clientAddress",
          "type": "address"
        }
      ],
      "name": "getClientContributionRecords",
      "outputs": [
        {
          "internalType": "uint256[]",
          "name": "rounds",
          "type": "uint256[]"
        },
        {
          "internalType": "uint256[]",
          "name": "accuracies",
          "type": "uint256[]"
        },
        {
          "internalType": "uint256[]",
          "name": "scores",
          "type": "uint256[]"
        },
        {
          "internalType": "uint256[]",
          "name": "timestamps",
          "type": "uint256[]"
        },
        {
          "internalType": "bool[]",
          "name": "rewarded",
          "type": "bool[]"
        }
      ],
      "stateMutability": "view",
      "type": "function",
      "constant": true
    },
    {
      "inputs": [
        {
          "internalType": "uint256",
          "name": "round",
          "type": "uint256"
        }
      ],
      "name": "getRoundContributions",
      "outputs": [
        {
          "internalType": "address[]",
          "name": "clients",
          "type": "address[]"
        },
        {
          "internalType": "uint256[]",
          "name": "accuracies",
          "type": "uint256[]"
        },
        {
          "internalType": "uint256[]",
          "name": "scores",
          "type": "uint256[]"
        },
        {
          "internalType": "bool[]",
          "name": "rewarded",
          "type": "bool[]"
        }
      ],
      "stateMutability": "view",
      "type": "function",
      "constant": true
    },
    {
      "inputs": [
        {
          "internalType": "address",
          "name": "newOwner",
          "type": "address"
        }
      ],
      "name": "transferOwnership",
      "outputs": [],
      "stateMutability": "nonpayable",
      "type": "function"
    },
    {
      "inputs": [],
      "name": "getAuthorizedClientCount",
      "outputs": [
        {
          "internalType": "uint256",
          "name": "",
          "type": "uint256"
        }
      ],
      "stateMutability": "view",
      "type": "function",
      "constant": true
    }
  ],
  "bytecode": "0x608060405234801561001057600080fd5b50600880546001600160a01b03191633179055613390806100326000396000f3fe608060405234801561001057600080fd5b50600436106101e55760003560e01c806398abc84f1161010f578063d9cf4bb9116100a2578063ef629e9711610071578063ef629e971461048b578063efaf4be51461049e578063f2fde38b146104b1578063f4fbb612146104c4576101e5565b8063d9cf4bb91461040d578063e236f46b14610432578063e780f73914610458578063eaa516801461046b576101e5565b8063b6a45d62116100de578063b6a45d62146103c1578063b82254b2146103d4578063c5d3dc34146103e7578063ce38b4e3146103fa576101e5565b806398abc84f146103645780639f91fde214610388578063a73627501461039b578063aa9bf1d4146103ae576101e5565b806355017705116101875780637b221028116101565780637b2210281461031b5780637d9718621461032357806382dcd7f5146103495780638da5cb5b1461035c576101e5565b806355017705146102a25780635e1216a3146102c25780636c572793146102e85780636ebe4e2814610308576101e5565b80632514f018116101c35780632514f0181461024b578063372500ab1461027057806341744f7b146102785780634f057af01461028d576101e5565b8063047af67f146101ea57806307d0fa29146101ff5780630c45114d14610228575b600080fd5b6101fd6101f83660046129d6565b6104d7565b005b61021261020d3660046129d6565b6105b6565b60405161021f9190612bf0565b60405180910390f35b61023b6102363660046129d6565b6105e0565b60405161021f9493929190612c66565b61025e610259366004612883565b610912565b60405161021f969594939291906131e7565b6101fd61095a565b610280610a28565b60405161021f9190612d7a565b610295610a2e565b60405161021f9190612c53565b6102b56102b03660046129d6565b610a90565b60405161021f9190612cbe565b6102d56102d03660046128a4565b610af3565b60405161021f9796959493929190612c04565b6102fb6102f6366004612883565b610be5565b60405161021f9190612d6f565b6101fd610316366004612929565b610c06565b610280610c82565b6103366103313660046129d6565b610c88565b60405161021f9796959493929190612d83565b61025e610357366004612883565b610e82565b610212610ec0565b610377610372366004612883565b610ecf565b60405161021f959493929190612d02565b6101fd610396366004612ac2565b61129f565b6102806103a9366004612a62565b6114cc565b6101fd6103bc366004612883565b6116d1565b6102806103cf3660046129ee565b6117d2565b6102806103e2366004612a62565b6117ef565b6102806103f5366004612ac2565b611a0d565b6101fd610408366004612883565b611a3e565b61042061041b3660046129ee565b611c3d565b60405161021f96959493929190612de0565b6104456104403660046129d6565b611de1565b60405161021f9796959493929190612e6f565b610280610466366004612a20565b611f3c565b61047e6104793660046129d6565b611f70565b60405161021f9190612e27565b6102806104993660046128cd565b61200b565b6104456104ac3660046129d6565b6122ab565b6101fd6104bf366004612883565b61245a565b6102d56104d2366004612ac2565b6124cc565b6008546001600160a01b0316331461050a5760405162461bcd60e51b815260040161050190612e9a565b60405180910390fd5b6000818152602081905260409020600301546105385760405162461bcd60e51b815260040161050190613087565b600081815260208190526040902060050154600160a01b900460ff166105705760405162461bcd60e51b815260040161050190612f4d565b600081815260208190526040808220600501805460ff60a01b191690555182917f77731f8c28ec1f1515adfd0a49782a0c50fa7dd8f930387223709879f318505e91a250565b600481815481106105c657600080fd5b6000918252602090912001546001600160a01b0316905081565b60008181526006602052604090208054606091829182918291806001600160401b0381111561061f57634e487b7160e01b600052604160045260246000fd5b604051908082528060200260200182016040528015610648578160200160208202803683370190505b509550806001600160401b0381111561067157634e487b7160e01b600052604160045260246000fd5b60405190808252806020026020018201604052801561069a578160200160208202803683370190505b509450806001600160401b038111156106c357634e487b7160e01b600052604160045260246000fd5b6040519080825280602002602001820160405280156106ec578160200160208202803683370190505b509350806001600160401b0381111561071557634e487b7160e01b600052604160045260246000fd5b60405190808252806020026020018201604052801561073e578160200160208202803683370190505b50925060005b818110156109085782818154811061076c57634e487b7160e01b600052603260045260246000fd5b600091825260209091206007909102015487516001600160a01b03909116908890839081106107ab57634e487b7160e01b600052603260045260246000fd5b60200260200101906001600160a01b031690816001600160a01b0316815250508281815481106107eb57634e487b7160e01b600052603260045260246000fd5b90600052602060002090600702016003015486828151811061081d57634e487b7160e01b600052603260045260246000fd5b60200260200101818152505082818154811061084957634e487b7160e01b600052603260045260246000fd5b90600052602060002090600702016005015485828151811061087b57634e487b7160e01b600052603260045260246000fd5b6020026020010181815250508281815481106108a757634e487b7160e01b600052603260045260246000fd5b906000526020600020906007020160060160009054906101000a900460ff168482815181106108e657634e487b7160e01b600052603260045260246000fd5b911515602092830291909101909101528061090081613313565b915050610744565b5050509193509193565b6001600160a01b031660009081526003602081905260409091208054600182015460028301549383015460048401546005909401549295919460ff9081169491939192911690565b336000908152600360205260409020600281015460ff1661098d5760405162461bcd60e51b815260040161050190612ff2565b60008160040154116109b15760405162461bcd60e51b815260040161050190612fc5565b600581015460ff16156109d65760405162461bcd60e51b815260040161050190612edf565b600481015460058201805460ff1916600117905560405133907f106f923f993c2149d49b4255ff723acafa1f2d94393f561d3eda32ae348f724190610a1c908490612d7a565b60405180910390a25050565b60075481565b60606004805480602002602001604051908101604052809291908181526020018280548015610a8657602002820191906000526020600020905b81546001600160a01b03168152600190910190602001808311610a68575b5050505050905090565b600081815260016020908152604091829020805483518184028101840190945280845260609392830182828015610ae657602002820191906000526020600020905b815481526020019060010190808311610ad2575b505050505090505b919050565b60056020528160005260406000208181548110610b0f57600080fd5b60009182526020909120600790910201805460018201546002830180546001600160a01b03909316955090935090610b46906132d8565b80601f0160208091040260200160405190810160405280929190818152602001828054610b72906132d8565b8015610bbf5780601f10610b9457610100808354040283529160200191610bbf565b820191906000526020600020905b815481529060010190602001808311610ba257829003601f168201915b505050506003830154600484015460058501546006909501549394919390925060ff1687565b6001600160a01b031660009081526003602052604090206002015460ff1690565b6008546001600160a01b03163314610c305760405162461bcd60e51b815260040161050190612e9a565b60005b8151811015610c7e57610c6c828281518110610c5f57634e487b7160e01b600052603260045260246000fd5b60200260200101516116d1565b80610c7681613313565b915050610c33565b5050565b60045490565b60008181526001602052604081205460609081908390819081908190610cc05760405162461bcd60e51b8152600401610501906130b5565b6000888152600160208190526040822080549091610cdd91613291565b81548110610cfb57634e487b7160e01b600052603260045260246000fd5b60009182526020808320919091015480835290829052604090912060038101546004820154600583015483549495509293859385936002850193909290916001600160a01b03811691600160a01b90910460ff16908690610d5b906132d8565b80601f0160208091040260200160405190810160405280929190818152602001828054610d87906132d8565b8015610dd45780601f10610da957610100808354040283529160200191610dd4565b820191906000526020600020905b815481529060010190602001808311610db757829003601f168201915b50505050509550848054610de7906132d8565b80601f0160208091040260200160405190810160405280929190818152602001828054610e13906132d8565b8015610e605780601f10610e3557610100808354040283529160200191610e60565b820191906000526020600020905b815481529060010190602001808311610e4357829003601f168201915b5050505050945098509850985098509850985098505050919395979092949650565b60036020819052600091825260409091208054600182015460028301549383015460048401546005909401549294919360ff92831693919290911686565b6008546001600160a01b031681565b6001600160a01b03811660009081526005602052604090208054606091829182918291829190806001600160401b03811115610f1b57634e487b7160e01b600052604160045260246000fd5b604051908082528060200260200182016040528015610f44578160200160208202803683370190505b509650806001600160401b03811115610f6d57634e487b7160e01b600052604160045260246000fd5b604051908082528060200260200182016040528015610f96578160200160208202803683370190505b509550806001600160401b03811115610fbf57634e487b7160e01b600052604160045260246000fd5b604051908082528060200260200182016040528015610fe8578160200160208202803683370190505b509450806001600160401b0381111561101157634e487b7160e01b600052604160045260246000fd5b60405190808252806020026020018201604052801561103a578160200160208202803683370190505b509350806001600160401b0381111561106357634e487b7160e01b600052604160045260246000fd5b60405190808252806020026020018201604052801561108c578160200160208202803683370190505b50925060005b81811015611293578281815481106110ba57634e487b7160e01b600052603260045260246000fd5b9060005260206000209060070201600101548882815181106110ec57634e487b7160e01b600052603260045260246000fd5b60200260200101818152505082818154811061111857634e487b7160e01b600052603260045260246000fd5b90600052602060002090600702016003015487828151811061114a57634e487b7160e01b600052603260045260246000fd5b60200260200101818152505082818154811061117657634e487b7160e01b600052603260045260246000fd5b9060005260206000209060070201600501548682815181106111a857634e487b7160e01b600052603260045260246000fd5b6020026020010181815250508281815481106111d457634e487b7160e01b600052603260045260246000fd5b90600052602060002090600702016004015485828151811061120657634e487b7160e01b600052603260045260246000fd5b60200260200101818152505082818154811061123257634e487b7160e01b600052603260045260246000fd5b906000526020600020906007020160060160009054906101000a900460ff1684828151811061127157634e487b7160e01b600052603260045260246000fd5b911515602092830291909101909101528061128b81613313565b915050611092565b50505091939590929450565b6008546001600160a01b031633146112c95760405162461bcd60e51b815260040161050190612e9a565b600082815260066020526040902080546112f55760405162461bcd60e51b815260040161050190612f16565b6000805b82548110156113535782818154811061132257634e487b7160e01b600052603260045260246000fd5b9060005260206000209060070201600501548261133f919061323a565b91508061134b81613313565b9150506112f9565b50600081116113745760405162461bcd60e51b815260040161050190613131565b60005b82548110156114c5578281815481106113a057634e487b7160e01b600052603260045260246000fd5b600091825260209091206006600790920201015460ff166114b35760008382815481106113dd57634e487b7160e01b600052603260045260246000fd5b906000526020600020906007020190506000838683600501546114009190613272565b61140a9190613252565b60068301805460ff1916600117905582546001600160a01b03166000908152600360205260408120600481018054939450909284929061144b90849061323a565b925050819055508160076000828254611464919061323a565b909155505082546040516001600160a01b03909116907f098780f78fba60e0edc6f2e1ff456143f9803c5bf9f2cb202bd715d69b2e4e91906114a7908590612d7a565b60405180910390a25050505b806114bd81613313565b915050611377565b5050505050565b6000806114d98686611f3c565b6000818152602081905260409020600301549091501561150b5760405162461bcd60e51b815260040161050190613029565b6040805160e0810182528781526020808201889052818301879052426060830152608082018690523360a0830152600160c083015260008481528082529290922081518051929391926115619284920190612769565b506020828101516001830155604083015180516115849260028501920190612769565b50606082015160038201556080820151600482015560a08201516005909101805460c0909301511515600160a01b0260ff60a01b196001600160a01b039093166001600160a01b0319909416939093179190911691909117905560008581526001602081815260408320805492830181558352822001829055611606856124e8565b90506000801b60028260405161161c9190612bb2565b908152602001604051809103902054148061166257506116628561165d6002846040516116499190612bb2565b908152602001604051809103902054611f70565b612657565b1561168957816002826040516116789190612bb2565b908152604051908190036020019020555b817f57c8f3fabbfd3814f1f2935427f07b2ef1a98dae6568ae63c147e3fb0e5edea98888886040516116bd93929190612e3a565b60405180910390a25090505b949350505050565b6008546001600160a01b031633146116fb5760405162461bcd60e51b815260040161050190612e9a565b6001600160a01b0381166117215760405162461bcd60e51b815260040161050190613057565b6001600160a01b0381166000908152600360205260409020600281015460ff16610c7e5760028101805460ff1916600190811790915560048054918201815560009081527f8a35acfbc15ff81a39ae7d344fd709f28e8600b4aa8c65c6b64bfe7fe36bd19b90910180546001600160a01b0385166001600160a01b0319909116811790915560405190917f88e0cfea153c684860265db3d2ffbf1f58244dda3d0d74a25b398dc88c60a75391a25050565b805160208183018101805160028252928201919093012091525481565b6008546000906001600160a01b0316331461181c5760405162461bcd60e51b815260040161050190612e9a565b6000848152600160205260409020546118475760405162461bcd60e51b8152600401610501906131a2565b60006118538686611f3c565b600081815260208190526040902060030154909150156118745790506116c9565b6040805160e0810182528781526020808201889052818301879052426060830152608082018690523360a0830152600160c083015260008481528082529290922081518051929391926118ca9284920190612769565b506020828101516001830155604083015180516118ed9260028501920190612769565b50606082015160038201556080820151600482015560a08201516005909101805460c0909301511515600160a01b0260ff60a01b196001600160a01b039093166001600160a01b031990941693909317919091169190911790556000858152600160208181526040832080549283018155835282200182905561196f856124e8565b90506000801b6002826040516119859190612bb2565b90815260200160405180910390205414806119b257506119b28561165d6002846040516116499190612bb2565b156119d957816002826040516119c89190612bb2565b908152604051908190036020019020555b817f537d379795326953c563729ba5feeb98bbb6659c866d03472a04b4ed7941f5b18888886040516116bd93929190612e3a565b60016020528160005260406000208181548110611a2957600080fd5b90600052602060002001600091509150505481565b6008546001600160a01b03163314611a685760405162461bcd60e51b815260040161050190612e9a565b6001600160a01b03811660009081526003602052604090206002015460ff16611aa35760405162461bcd60e51b815260040161050190612ff2565b6001600160a01b0381166000908152600360205260408120600201805460ff191690555b600454811015611c0557816001600160a01b031660048281548110611afc57634e487b7160e01b600052603260045260246000fd5b6000918252602090912001546001600160a01b03161415611bf35760048054611b2790600190613291565b81548110611b4557634e487b7160e01b600052603260045260246000fd5b600091825260209091200154600480546001600160a01b039092169183908110611b7f57634e487b7160e01b600052603260045260246000fd5b9060005260206000200160006101000a8154816001600160a01b0302191690836001600160a01b031602179055506004805480611bcc57634e487b7160e01b600052603160045260246000fd5b600082815260209020810160001990810180546001600160a01b0319169055019055611c05565b80611bfd81613313565b915050611ac7565b506040516001600160a01b038216907f316e376af8ad3c9ff24948b0031984714a4056dae154b476db7180bc173be88390600090a250565b60006060600060606000806000600288604051611c5a9190612bb2565b90815260405190819003602001902054905080611c895760405162461bcd60e51b815260040161050190612f84565b6000818152602081905260409020600181015460038201546004830154835485938593909260028501928590611cbe906132d8565b80601f0160208091040260200160405190810160405280929190818152602001828054611cea906132d8565b8015611d375780601f10611d0c57610100808354040283529160200191611d37565b820191906000526020600020905b815481529060010190602001808311611d1a57829003601f168201915b50505050509450828054611d4a906132d8565b80601f0160208091040260200160405190810160405280929190818152602001828054611d76906132d8565b8015611dc35780601f10611d9857610100808354040283529160200191611dc3565b820191906000526020600020905b815481529060010190602001808311611da657829003601f168201915b50505050509250975097509750975097509750505091939550919395565b600060208190529081526040902080548190611dfc906132d8565b80601f0160208091040260200160405190810160405280929190818152602001828054611e28906132d8565b8015611e755780601f10611e4a57610100808354040283529160200191611e75565b820191906000526020600020905b815481529060010190602001808311611e5857829003601f168201915b505050505090806001015490806002018054611e90906132d8565b80601f0160208091040260200160405190810160405280929190818152602001828054611ebc906132d8565b8015611f095780601f10611ede57610100808354040283529160200191611f09565b820191906000526020600020905b815481529060010190602001808311611eec57829003601f168201915b5050505060038301546004840154600590940154929390929091506001600160a01b03811690600160a01b900460ff1687565b60008282604051602001611f51929190612bce565b6040516020818303038152906040528051906020012090505b92915050565b6000818152602081905260409020600201805460609190611f90906132d8565b80601f0160208091040260200160405190810160405280929190818152602001828054611fbc906132d8565b8015610ae65780601f10611fde57610100808354040283529160200191610ae6565b820191906000526020600020905b815481529060010190602001808311611fec5750939695505050505050565b6008546000906001600160a01b031633148061202f5750336001600160a01b038616145b61204b5760405162461bcd60e51b8152600401610501906130ec565b6001600160a01b03851660009081526003602052604090206002015460ff166120865760405162461bcd60e51b815260040161050190612ff2565b6000612093606484613252565b6040805160e0810182526001600160a01b0389811680835260208084018b81528486018b8152606086018b905242608087015260a08601889052600060c087018190529384526005835295832080546001808201835591855293839020865160079095020180546001600160a01b03191694909516939093178455519183019190915592518051949550919384939192612134926002850192910190612769565b50606082015160038201556080820151600482015560a0820151600582015560c0909101516006918201805460ff191691151591909117905560008781526020918252604080822080546001818101835591845292849020855160079094020180546001600160a01b0319166001600160a01b039094169390931783558484015190830155830151805184936121d1926002850192910190612769565b5060608201516003828101919091556080830151600483015560a0830151600583015560c0909201516006909101805460ff19169115159190911790556001600160a01b03881660009081526020919091526040812080549091829061223683613313565b91905055508281600101600082825461224f919061323a565b90915550504260038201556040516001600160a01b038916907f0196d0533f37ea47d88e4eb66396286ef3e57c7ebd89f644475d77f1e899cace90612297908a9087906131d9565b60405180910390a250909695505050505050565b60606000606060008060008060008060008a8152602001908152602001600020905060008160030154116122f15760405162461bcd60e51b815260040161050190613087565b600181015460038201546004830154600584015484548594936002860193909290916001600160a01b03821691600160a01b900460ff16908790612334906132d8565b80601f0160208091040260200160405190810160405280929190818152602001828054612360906132d8565b80156123ad5780601f10612382576101008083540402835291602001916123ad565b820191906000526020600020905b81548152906001019060200180831161239057829003601f168201915b505050505096508480546123c0906132d8565b80601f01602080910402602001604051908101604052809291908181526020018280546123ec906132d8565b80156124395780601f1061240e57610100808354040283529160200191612439565b820191906000526020600020905b81548152906001019060200180831161241c57829003601f168201915b50505050509450975097509750975097509750975050919395979092949650565b6008546001600160a01b031633146124845760405162461bcd60e51b815260040161050190612e9a565b6001600160a01b0381166124aa5760405162461bcd60e51b81526004016105019061315e565b600880546001600160a01b0319166001600160a01b0392909216919091179055565b60066020528160005260406000208181548110610b0f57600080fd5b606081600080805b83518110156125645783818151811061251957634e487b7160e01b600052603260045260246000fd5b6020910101516001600160f81b031916601760f91b1415612552578261253e81613313565b935050809150826002141561255257612564565b8061255c81613313565b9150506124f0565b50600282101561257957849350505050610aee565b6000816001600160401b038111156125a157634e487b7160e01b600052604160045260246000fd5b6040519080825280601f01601f1916602001820160405280156125cb576020820181803683370190505b50905060005b8281101561264d578481815181106125f957634e487b7160e01b600052603260045260246000fd5b602001015160f81c60f81b82828151811061262457634e487b7160e01b600052603260045260246000fd5b60200101906001600160f81b031916908160001a9053508061264581613313565b9150506125d1565b5095945050505050565b60008282825b82518110801561266d5750815181105b1561275d5781818151811061269257634e487b7160e01b600052603260045260246000fd5b602001015160f81c60f81b6001600160f81b0319168382815181106126c757634e487b7160e01b600052603260045260246000fd5b01602001516001600160f81b0319161461274b578181815181106126fb57634e487b7160e01b600052603260045260246000fd5b602001015160f81c60f81b6001600160f81b03191683828151811061273057634e487b7160e01b600052603260045260246000fd5b01602001516001600160f81b031916119350611f6a92505050565b8061275581613313565b91505061265d565b50519051119392505050565b828054612775906132d8565b90600052602060002090601f01602090048101928261279757600085556127dd565b82601f106127b057805160ff19168380011785556127dd565b828001600101855582156127dd579182015b828111156127dd5782518255916020019190600101906127c2565b506127e99291506127ed565b5090565b5b808211156127e957600081556001016127ee565b80356001600160a01b0381168114610aee57600080fd5b600082601f830112612829578081fd5b81356001600160401b0381111561284257612842613344565b612855601f8201601f1916602001613211565b818152846020838601011115612869578283fd5b816020850160208301379081016020019190915292915050565b600060208284031215612894578081fd5b61289d82612802565b9392505050565b600080604083850312156128b6578081fd5b6128bf83612802565b946020939093013593505050565b600080600080608085870312156128e2578182fd5b6128eb85612802565b93506020850135925060408501356001600160401b0381111561290c578283fd5b61291887828801612819565b949793965093946060013593505050565b6000602080838503121561293b578182fd5b82356001600160401b0380821115612951578384fd5b818501915085601f830112612964578384fd5b81358181111561297657612976613344565b8381029150612986848301613211565b8181528481019084860184860187018a10156129a0578788fd5b8795505b838610156129c9576129b581612802565b8352600195909501949186019186016129a4565b5098975050505050505050565b6000602082840312156129e7578081fd5b5035919050565b6000602082840312156129ff578081fd5b81356001600160401b03811115612a14578182fd5b6116c984828501612819565b60008060408385031215612a32578182fd5b82356001600160401b03811115612a47578283fd5b612a5385828601612819565b95602094909401359450505050565b60008060008060808587031215612a77578384fd5b84356001600160401b0380821115612a8d578586fd5b612a9988838901612819565b9550602087013594506040870135915080821115612ab5578384fd5b5061291887828801612819565b60008060408385031215612ad4578182fd5b50508035926020909101359150565b6000815180845260208085019450808401835b83811015612b1b5781516001600160a01b031687529582019590820190600101612af6565b509495945050505050565b6000815180845260208085019450808401835b83811015612b1b578151151587529582019590820190600101612b39565b6000815180845260208085019450808401835b83811015612b1b57815187529582019590820190600101612b6a565b60008151808452612b9e8160208601602086016132a8565b601f01601f19169290920160200192915050565b60008251612bc48184602087016132a8565b9190910192915050565b60008351612be08184602088016132a8565b9190910191825250602001919050565b6001600160a01b0391909116815260200190565b600060018060a01b038916825287602083015260e06040830152612c2b60e0830188612b86565b90508560608301528460808301528360a083015282151560c083015298975050505050505050565b60006020825261289d6020830184612ae3565b600060808252612c796080830187612ae3565b8281036020840152612c8b8187612b57565b90508281036040840152612c9f8186612b57565b90508281036060840152612cb38185612b26565b979650505050505050565b6020808252825182820181905260009190848201906040850190845b81811015612cf657835183529284019291840191600101612cda565b50909695505050505050565b600060a08252612d1560a0830188612b57565b8281036020840152612d278188612b57565b90508281036040840152612d3b8187612b57565b90508281036060840152612d4f8186612b57565b90508281036080840152612d638185612b26565b98975050505050505050565b901515815260200190565b90815260200190565b600088825260e06020830152612d9c60e0830189612b86565b8281036040840152612dae8189612b86565b6060840197909752505060808101939093526001600160a01b039190911660a0830152151560c0909101529392505050565b600087825260c06020830152612df960c0830188612b86565b8660408401528281036060840152612e118187612b86565b6080840195909552505060a00152949350505050565b60006020825261289d6020830184612b86565b600060608252612e4d6060830186612b86565b8460208401528281036040840152612e658185612b86565b9695505050505050565b600060e08252612e8260e083018a612b86565b8860208401528281036040840152612dae8189612b86565b60208082526025908201527f4f6e6c7920746865206f776e65722063616e2063616c6c20746869732066756e60408201526431ba34b7b760d91b606082015260800190565b60208082526017908201527f5265776172647320616c726561647920636c61696d6564000000000000000000604082015260600190565b6020808252601f908201527f4e6f20636f6e747269627574696f6e7320666f72207468697320726f756e6400604082015260600190565b60208082526019908201527f4d6f64656c20697320616c726561647920696e61637469766500000000000000604082015260600190565b60208082526021908201527f4e6f206d6f64656c7320666f7220746869732076657273696f6e2070726566696040820152600f60fb1b606082015260800190565b6020808252601390820152724e6f207265776172647320746f20636c61696d60681b604082015260600190565b60208082526018908201527f436c69656e74206973206e6f7420617574686f72697a65640000000000000000604082015260600190565b6020808252601490820152734d6f64656c20616c72656164792065786973747360601b604082015260600190565b602080825260169082015275496e76616c696420636c69656e74206164647265737360501b604082015260600190565b602080825260149082015273135bd9195b08191bd95cc81b9bdd08195e1a5cdd60621b604082015260600190565b60208082526018908201527f4e6f206d6f64656c7320666f72207468697320726f756e640000000000000000604082015260600190565b60208082526025908201527f4e6f7420617574686f72697a656420746f207265636f726420636f6e747269626040820152643aba34b7b760d91b606082015260800190565b602080825260139082015272546f74616c2073636f7265206973207a65726f60681b604082015260600190565b60208082526024908201527f4e6577206f776e65722063616e6e6f7420626520746865207a65726f206164646040820152637265737360e01b606082015260800190565b6020808252601e908201527f4e6f206d6f64656c7320657869737420666f72207468697320726f756e640000604082015260600190565b918252602082015260400190565b9586526020860194909452911515604085015260608401526080830152151560a082015260c00190565b6040518181016001600160401b038111828210171561323257613232613344565b604052919050565b6000821982111561324d5761324d61332e565b500190565b60008261326d57634e487b7160e01b81526012600452602481fd5b500490565b600081600019048311821515161561328c5761328c61332e565b500290565b6000828210156132a3576132a361332e565b500390565b60005b838110156132c35781810151838201526020016132ab565b838111156132d2576000848401525b50505050565b6002810460018216806132ec57607f821691505b6020821081141561330d57634e487b7160e01b600052602260045260246000fd5b50919050565b60006000198214156133275761332761332e565b5060010190565b634e487b7160e01b600052601160045260246000fd5b634e487b7160e01b600052604160045260246000fdfea26469706673582212203ff39bd0ee650036cd2cd049cf4d7d760987942f62951a224d9077cf310ccd2264736f6c63430008000033",
  "immutableReferences": {},
  "source": "// SPDX-License-Identifier: MIT\npragma solidity ^0.8.0;\n\ncontract Federation {\n    // Model structure\n    struct Model {\n        string ipfsHash;\n        uint256 round;\n        string version;\n        uint256 timestamp;\n        uint256 participatingClients;\n        address publisher;\n        bool isActive;\n    }\n    \n    // Client contribution structure\n    struct ClientContribution {\n        uint256 contributionCount;\n        uint256 totalScore;\n        bool isAuthorized;\n        uint256 lastContributionTimestamp;\n        uint256 rewardsEarned;\n        bool rewardsClaimed;\n    }\n    \n    // Contribution record structure\n    struct ContributionRecord {\n        address clientAddress;\n        uint256 round;\n        string ipfsHash;\n        uint256 accuracy;\n        uint256 timestamp;\n        uint256 score;\n        bool rewarded;\n    }\n    \n    // Main storage for models\n    mapping(bytes32 => Model) public models;\n    \n    // Model IDs by round\n    mapping(uint256 => bytes32[]) public modelsByRound;\n    \n    // Latest model ID for each version prefix\n    mapping(string => bytes32) public latestVersions;\n    \n    // Client registry\n    mapping(address => ClientContribution) public clientRegistry;\n    \n    // Authorized client addresses\n    address[] public authorizedClients;\n    \n    // Contribution records by client address\n    mapping(address => ContributionRecord[]) public contributionRecords;\n    \n    // Contributions by round\n    mapping(uint256 => ContributionRecord[]) public roundContributions;\n    \n    // Total rewards allocated\n    uint256 public totalRewardsAllocated;\n    \n    // Events\n    event ModelRegistered(bytes32 indexed modelId, string ipfsHash, uint256 round, string version);\n    event ModelUpdated(bytes32 indexed modelId, string ipfsHash, uint256 round, string version);\n    event ModelDeactivated(bytes32 indexed modelId);\n    event ClientAuthorized(address indexed clientAddress);\n    event ClientDeauthorized(address indexed clientAddress);\n    event ContributionRecorded(address indexed clientAddress, uint256 round, uint256 score);\n    event RewardAllocated(address indexed clientAddress, uint256 amount);\n    event RewardClaimed(address indexed clientAddress, uint256 amount);\n    \n    // Owner of the contract\n    address public owner;\n    \n    constructor() {\n        owner = msg.sender;\n    }\n    \n    // Modifier to restrict certain functions to the owner\n    modifier onlyOwner() {\n        require(msg.sender == owner, \"Only the owner can call this function\");\n        _;\n    }\n    \n    // Generate a unique model ID from the IPFS hash and round\n    function generateModelId(string memory ipfsHash, uint256 round) public pure returns (bytes32) {\n        return keccak256(abi.encodePacked(ipfsHash, round));\n    }\n    \n    // Register a new model\n    function registerModel(\n        string memory ipfsHash, \n        uint256 round, \n        string memory version,\n        uint256 participatingClients\n    ) public returns (bytes32) {\n        // Generate model ID\n        bytes32 modelId = generateModelId(ipfsHash, round);\n        \n        // Ensure it doesn't already exist\n        require(models[modelId].timestamp == 0, \"Model already exists\");\n        \n        // Store the model\n        models[modelId] = Model({\n            ipfsHash: ipfsHash,\n            round: round,\n            version: version,\n            timestamp: block.timestamp,\n            participatingClients: participatingClients,\n            publisher: msg.sender,\n            isActive: true\n        });\n        \n        // Add to round mapping\n        modelsByRound[round].push(modelId);\n        \n        // Update latest version\n        string memory versionPrefix = getVersionPrefix(version);\n        \n        // If there's no latest version for this prefix or this one is newer\n        if (latestVersions[versionPrefix] == bytes32(0) || \n            compareVersions(version, getVersionFromModelId(latestVersions[versionPrefix]))) {\n            latestVersions[versionPrefix] = modelId;\n        }\n        \n        // Emit event\n        emit ModelRegistered(modelId, ipfsHash, round, version);\n        \n        return modelId;\n    }\n    \n    // Update an existing model by round\n    function updateModelByRound(\n        string memory ipfsHash, \n        uint256 round, \n        string memory version,\n        uint256 participatingClients\n    ) public onlyOwner returns (bytes32) {\n        // Check if any model exists for this round\n        require(modelsByRound[round].length > 0, \"No models exist for this round\");\n        \n        // Generate new model ID\n        bytes32 modelId = generateModelId(ipfsHash, round);\n        \n        // Check if this specific model already exists\n        if (models[modelId].timestamp > 0) {\n            // Model with this exact hash and round already exists\n            // Just return the existing ID\n            return modelId;\n        }\n        \n        // Store the model\n        models[modelId] = Model({\n            ipfsHash: ipfsHash,\n            round: round,\n            version: version,\n            timestamp: block.timestamp,\n            participatingClients: participatingClients,\n            publisher: msg.sender,\n            isActive: true\n        });\n        \n        // Add to round mapping\n        modelsByRound[round].push(modelId);\n        \n        // Update latest version\n        string memory versionPrefix = getVersionPrefix(version);\n        \n        // If there's no latest version for this prefix or this one is newer\n        if (latestVersions[versionPrefix] == bytes32(0) || \n            compareVersions(version, getVersionFromModelId(latestVersions[versionPrefix]))) {\n            latestVersions[versionPrefix] = modelId;\n        }\n        \n        // Emit event\n        emit ModelUpdated(modelId, ipfsHash, round, version);\n        \n        return modelId;\n    }\n    \n    // Get version prefix (e.g., \"1.0\" from \"1.0.3\")\n    function getVersionPrefix(string memory version) internal pure returns (string memory) {\n        // This is a simplified implementation that assumes format major.minor.patch\n        bytes memory versionBytes = bytes(version);\n        uint dotCount = 0;\n        uint lastDotPos = 0;\n        \n        for (uint i = 0; i < versionBytes.length; i++) {\n            if (versionBytes[i] == '.') {\n                dotCount++;\n                lastDotPos = i;\n                if (dotCount == 2) break;\n            }\n        }\n        \n        if (dotCount < 2) return version; // No patch number found\n        \n        // Create prefix (major.minor)\n        bytes memory prefix = new bytes(lastDotPos);\n        for (uint i = 0; i < lastDotPos; i++) {\n            prefix[i] = versionBytes[i];\n        }\n        \n        return string(prefix);\n    }\n    \n    // Compare versions (returns true if v1 is newer than v2)\n    function compareVersions(string memory v1, string memory v2) internal pure returns (bool) {\n        // Simple string comparison - assumes properly formatted semantic versions\n        // In a production environment, this would parse and compare version components\n        bytes memory b1 = bytes(v1);\n        bytes memory b2 = bytes(v2);\n        \n        for (uint i = 0; i < b1.length && i < b2.length; i++) {\n            if (b1[i] != b2[i]) {\n                return b1[i] > b2[i];\n            }\n        }\n        \n        return b1.length > b2.length;\n    }\n    \n    // Get the version from a model ID\n    function getVersionFromModelId(bytes32 modelId) public view returns (string memory) {\n        return models[modelId].version;\n    }\n    \n    // Get the latest model for a specific version prefix\n    function getLatestModel(string memory versionPrefix) public view returns (\n        bytes32 modelId,\n        string memory ipfsHash,\n        uint256 round,\n        string memory version,\n        uint256 timestamp,\n        uint256 participatingClients\n    ) {\n        bytes32 id = latestVersions[versionPrefix];\n        require(id != bytes32(0), \"No models for this version prefix\");\n        \n        Model storage model = models[id];\n        return (\n            id,\n            model.ipfsHash,\n            model.round,\n            model.version,\n            model.timestamp,\n            model.participatingClients\n        );\n    }\n    \n    // Get all models for a specific round\n    function getModelsByRound(uint256 round) public view returns (bytes32[] memory) {\n        return modelsByRound[round];\n    }\n    \n    // Get the most recent model for a specific round\n    function getLatestModelByRound(uint256 round) public view returns (\n        bytes32 modelId,\n        string memory ipfsHash,\n        string memory version,\n        uint256 timestamp,\n        uint256 participatingClients,\n        address publisher,\n        bool isActive\n    ) {\n        require(modelsByRound[round].length > 0, \"No models for this round\");\n        \n        // Get the last model in the array (most recently added)\n        bytes32 id = modelsByRound[round][modelsByRound[round].length - 1];\n        Model storage model = models[id];\n        \n        return (\n            id,\n            model.ipfsHash,\n            model.version,\n            model.timestamp,\n            model.participatingClients,\n            model.publisher,\n            model.isActive\n        );\n    }\n    \n    // Get model details\n    function getModelDetails(bytes32 modelId) public view returns (\n        string memory ipfsHash,\n        uint256 round,\n        string memory version,\n        uint256 timestamp,\n        uint256 participatingClients,\n        address publisher,\n        bool isActive\n    ) {\n        Model storage model = models[modelId];\n        require(model.timestamp > 0, \"Model does not exist\");\n        \n        return (\n            model.ipfsHash,\n            model.round,\n            model.version,\n            model.timestamp,\n            model.participatingClients,\n            model.publisher,\n            model.isActive\n        );\n    }\n    \n    // Deactivate a model (e.g., if it's found to be problematic)\n    function deactivateModel(bytes32 modelId) public onlyOwner {\n        require(models[modelId].timestamp > 0, \"Model does not exist\");\n        require(models[modelId].isActive, \"Model is already inactive\");\n        \n        models[modelId].isActive = false;\n        \n        emit ModelDeactivated(modelId);\n    }\n    \n    // Authorize a client to participate in federated learning\n    function authorizeClient(address clientAddress) public onlyOwner {\n        require(clientAddress != address(0), \"Invalid client address\");\n        \n        ClientContribution storage client = clientRegistry[clientAddress];\n        \n        if (!client.isAuthorized) {\n            client.isAuthorized = true;\n            authorizedClients.push(clientAddress);\n            \n            emit ClientAuthorized(clientAddress);\n        }\n    }\n    \n    // Authorize multiple clients at once\n    function authorizeClients(address[] memory clientAddresses) public onlyOwner {\n        for (uint i = 0; i < clientAddresses.length; i++) {\n            authorizeClient(clientAddresses[i]);\n        }\n    }\n    \n    // Deauthorize a client\n    function deauthorizeClient(address clientAddress) public onlyOwner {\n        require(clientRegistry[clientAddress].isAuthorized, \"Client is not authorized\");\n        \n        clientRegistry[clientAddress].isAuthorized = false;\n        \n        // Remove from authorized clients array\n        // This is an inefficient implementation but works for moderate numbers of clients\n        for (uint i = 0; i < authorizedClients.length; i++) {\n            if (authorizedClients[i] == clientAddress) {\n                // Move the last element to this position and pop the last element\n                authorizedClients[i] = authorizedClients[authorizedClients.length - 1];\n                authorizedClients.pop();\n                break;\n            }\n        }\n        \n        emit ClientDeauthorized(clientAddress);\n    }\n    \n    // Check if a client is authorized\n    function isClientAuthorized(address clientAddress) public view returns (bool) {\n        return clientRegistry[clientAddress].isAuthorized;\n    }\n    \n    // Get all authorized clients\n    function getAllAuthorizedClients() public view returns (address[] memory) {\n        return authorizedClients;\n    }\n    \n    // Record a client's contribution\n    function recordContribution(\n        address clientAddress,\n        uint256 round,\n        string memory ipfsHash,\n        uint256 accuracy // Accuracy multiplied by 10000 (e.g., 95.67% = 9567)\n    ) public returns (uint256) {\n        // Only owner or the client itself can record a contribution\n        require(msg.sender == owner || msg.sender == clientAddress, \"Not authorized to record contribution\");\n        \n        // Check if client is authorized\n        require(clientRegistry[clientAddress].isAuthorized, \"Client is not authorized\");\n        \n        // Calculate contribution score (can be modified with more complex formulas)\n        // Simple linear scoring: score = accuracy / 100 (to get a 0-100 scale)\n        uint256 score = accuracy / 100;\n        \n        // Create contribution record\n        ContributionRecord memory record = ContributionRecord({\n            clientAddress: clientAddress,\n            round: round,\n            ipfsHash: ipfsHash,\n            accuracy: accuracy,\n            timestamp: block.timestamp,\n            score: score,\n            rewarded: false\n        });\n        \n        // Add to client's contribution records\n        contributionRecords[clientAddress].push(record);\n        \n        // Add to round contributions\n        roundContributions[round].push(record);\n        \n        // Update client metrics\n        ClientContribution storage client = clientRegistry[clientAddress];\n        client.contributionCount++;\n        client.totalScore += score;\n        client.lastContributionTimestamp = block.timestamp;\n        \n        emit ContributionRecorded(clientAddress, round, score);\n        \n        return score;\n    }\n    \n    // Allocate rewards to clients based on their contributions for a round\n    function allocateRewardsForRound(uint256 round, uint256 totalReward) public onlyOwner {\n        ContributionRecord[] storage contributions = roundContributions[round];\n        require(contributions.length > 0, \"No contributions for this round\");\n        \n        // Calculate total score for this round\n        uint256 totalScore = 0;\n        for (uint i = 0; i < contributions.length; i++) {\n            totalScore += contributions[i].score;\n        }\n        \n        require(totalScore > 0, \"Total score is zero\");\n        \n        // Allocate rewards proportionally to each client's score\n        for (uint i = 0; i < contributions.length; i++) {\n            if (!contributions[i].rewarded) {\n                ContributionRecord storage contribution = contributions[i];\n                \n                // Calculate reward amount\n                uint256 rewardAmount = (contribution.score * totalReward) / totalScore;\n                \n                // Update contribution record\n                contribution.rewarded = true;\n                \n                // Update client's rewards\n                ClientContribution storage client = clientRegistry[contribution.clientAddress];\n                client.rewardsEarned += rewardAmount;\n                \n                // Update total rewards allocated\n                totalRewardsAllocated += rewardAmount;\n                \n                emit RewardAllocated(contribution.clientAddress, rewardAmount);\n            }\n        }\n    }\n    \n    // Allow client to claim rewards (in a real implementation, this would transfer tokens)\n    function claimRewards() public {\n        ClientContribution storage client = clientRegistry[msg.sender];\n        require(client.isAuthorized, \"Client is not authorized\");\n        require(client.rewardsEarned > 0, \"No rewards to claim\");\n        require(!client.rewardsClaimed, \"Rewards already claimed\");\n        \n        uint256 amount = client.rewardsEarned;\n        client.rewardsClaimed = true;\n        \n        // In a real implementation, this would transfer tokens\n        // For now, we just mark it as claimed\n        \n        emit RewardClaimed(msg.sender, amount);\n    }\n    \n    // Get client contribution details\n    function getClientContribution(address clientAddress) public view returns (\n        uint256 contributionCount,\n        uint256 totalScore,\n        bool isAuthorized,\n        uint256 lastContributionTimestamp,\n        uint256 rewardsEarned,\n        bool rewardsClaimed\n    ) {\n        ClientContribution storage client = clientRegistry[clientAddress];\n        return (\n            client.contributionCount,\n            client.totalScore,\n            client.isAuthorized,\n            client.lastContributionTimestamp,\n            client.rewardsEarned,\n            client.rewardsClaimed\n        );\n    }\n    \n    // Get client contribution records\n    function getClientContributionRecords(address clientAddress) public view returns (\n        uint256[] memory rounds,\n        uint256[] memory accuracies,\n        uint256[] memory scores,\n        uint256[] memory timestamps,\n        bool[] memory rewarded\n    ) {\n        ContributionRecord[] storage records = contributionRecords[clientAddress];\n        uint256 length = records.length;\n        \n        rounds = new uint256[](length);\n        accuracies = new uint256[](length);\n        scores = new uint256[](length);\n        timestamps = new uint256[](length);\n        rewarded = new bool[](length);\n        \n        for (uint i = 0; i < length; i++) {\n            rounds[i] = records[i].round;\n            accuracies[i] = records[i].accuracy;\n            scores[i] = records[i].score;\n            timestamps[i] = records[i].timestamp;\n            rewarded[i] = records[i].rewarded;\n        }\n        \n        return (rounds, accuracies, scores, timestamps, rewarded);\n    }\n    \n    // Get contributions for a specific round\n    function getRoundContributions(uint256 round) public view returns (\n        address[] memory clients,\n        uint256[] memory accuracies,\n        uint256[] memory scores,\n        bool[] memory rewarded\n    ) {\n        ContributionRecord[] storage records = roundContributions[round];\n        uint256 length = records.length;\n        \n        clients = new address[](length);\n        accuracies = new uint256[](length);\n        scores = new uint256[](length);\n        rewarded = new bool[](length);\n        \n        for (uint i = 0; i < length; i++) {\n            clients[i] = records[i].clientAddress;\n            accuracies[i] = records[i].accuracy;\n            scores[i] = records[i].score;\n            rewarded[i] = records[i].rewarded;\n        }\n        \n        return (clients, accuracies, scores, rewarded);\n    }\n    \n    // Update contract owner\n    function transferOwnership(address newOwner) public onlyOwner {\n        require(newOwner != address(0), \"New owner cannot be the zero address\");\n        owner = newOwner;\n    }\n    \n    // Get total number of authorized clients\n    function getAuthorizedClientCount() public view returns (uint256) {\n        return authorizedClients.length;\n    }\n}",
  "sourcePath": "/home/cam/v2-flw/blockchain/contracts/Federation.sol",
  "compiler": {
    "name": "solc",
    "version": "0.8.0+commit.c7dfd78e.Emscripten.clang"
  },
  "schemaVersion": "3.4.16",
  "updatedAt": "2025-04-14T15:49:54.067Z",
  "networkType": "ethereum",
  "devdoc": {
    "kind": "dev",
    "methods": {},
    "version": 1
  },
  "userdoc": {
    "kind": "user",
    "methods": {},
    "version": 1
  }
}