{
  "contractName": "FraudDetectionFederated",
  "abi": [
    {
      "inputs": [],
      "stateMutability": "nonpayable",
      "type": "constructor"
    },
    {
      "anonymous": false,
      "inputs": [
        {
          "indexed": true,
          "internalType": "uint256",
          "name": "roundId",
          "type": "uint256"
        },
        {
          "indexed": false,
          "internalType": "string",
          "name": "ipfsHash",
          "type": "string"
        }
      ],
      "name": "GlobalModelUpdated",
      "type": "event"
    },
    {
      "anonymous": false,
      "inputs": [
        {
          "indexed": true,
          "internalType": "address",
          "name": "institution",
          "type": "address"
        },
        {
          "indexed": false,
          "internalType": "string",
          "name": "name",
          "type": "string"
        }
      ],
      "name": "InstitutionRegistered",
      "type": "event"
    },
    {
      "anonymous": false,
      "inputs": [
        {
          "indexed": true,
          "internalType": "address",
          "name": "institution",
          "type": "address"
        },
        {
          "indexed": true,
          "internalType": "uint256",
          "name": "roundId",
          "type": "uint256"
        },
        {
          "indexed": false,
          "internalType": "string",
          "name": "metrics",
          "type": "string"
        }
      ],
      "name": "ModelEvaluationSubmitted",
      "type": "event"
    },
    {
      "anonymous": false,
      "inputs": [
        {
          "indexed": true,
          "internalType": "address",
          "name": "institution",
          "type": "address"
        },
        {
          "indexed": true,
          "internalType": "uint256",
          "name": "roundId",
          "type": "uint256"
        },
        {
          "indexed": false,
          "internalType": "string",
          "name": "ipfsHash",
          "type": "string"
        }
      ],
      "name": "ModelUpdateSubmitted",
      "type": "event"
    },
    {
      "anonymous": false,
      "inputs": [
        {
          "indexed": true,
          "internalType": "uint256",
          "name": "roundId",
          "type": "uint256"
        }
      ],
      "name": "TrainingRoundInitiated",
      "type": "event"
    },
    {
      "inputs": [
        {
          "internalType": "uint256",
          "name": "",
          "type": "uint256"
        }
      ],
      "name": "authorizedInstitutions",
      "outputs": [
        {
          "internalType": "address",
          "name": "",
          "type": "address"
        }
      ],
      "stateMutability": "view",
      "type": "function",
      "constant": true
    },
    {
      "inputs": [],
      "name": "currentRound",
      "outputs": [
        {
          "internalType": "uint256",
          "name": "",
          "type": "uint256"
        }
      ],
      "stateMutability": "view",
      "type": "function",
      "constant": true
    },
    {
      "inputs": [
        {
          "internalType": "address",
          "name": "",
          "type": "address"
        }
      ],
      "name": "institutions",
      "outputs": [
        {
          "internalType": "address",
          "name": "addr",
          "type": "address"
        },
        {
          "internalType": "string",
          "name": "name",
          "type": "string"
        },
        {
          "internalType": "bool",
          "name": "authorized",
          "type": "bool"
        }
      ],
      "stateMutability": "view",
      "type": "function",
      "constant": true
    },
    {
      "inputs": [],
      "name": "owner",
      "outputs": [
        {
          "internalType": "address",
          "name": "",
          "type": "address"
        }
      ],
      "stateMutability": "view",
      "type": "function",
      "constant": true
    },
    {
      "inputs": [
        {
          "internalType": "uint256",
          "name": "",
          "type": "uint256"
        }
      ],
      "name": "trainingRounds",
      "outputs": [
        {
          "internalType": "uint256",
          "name": "roundId",
          "type": "uint256"
        },
        {
          "internalType": "uint256",
          "name": "startTime",
          "type": "uint256"
        },
        {
          "internalType": "uint256",
          "name": "endTime",
          "type": "uint256"
        },
        {
          "internalType": "string",
          "name": "globalModelHash",
          "type": "string"
        },
        {
          "internalType": "bool",
          "name": "completed",
          "type": "bool"
        }
      ],
      "stateMutability": "view",
      "type": "function",
      "constant": true
    },
    {
      "inputs": [
        {
          "internalType": "address",
          "name": "_institution",
          "type": "address"
        },
        {
          "internalType": "string",
          "name": "_name",
          "type": "string"
        }
      ],
      "name": "registerInstitution",
      "outputs": [],
      "stateMutability": "nonpayable",
      "type": "function"
    },
    {
      "inputs": [],
      "name": "initiateTrainingRound",
      "outputs": [],
      "stateMutability": "nonpayable",
      "type": "function"
    },
    {
      "inputs": [
        {
          "internalType": "uint256",
          "name": "_roundId",
          "type": "uint256"
        },
        {
          "internalType": "string",
          "name": "_ipfsHash",
          "type": "string"
        },
        {
          "internalType": "string",
          "name": "_metrics",
          "type": "string"
        }
      ],
      "name": "submitModelUpdate",
      "outputs": [],
      "stateMutability": "nonpayable",
      "type": "function"
    },
    {
      "inputs": [
        {
          "internalType": "uint256",
          "name": "_roundId",
          "type": "uint256"
        },
        {
          "internalType": "string",
          "name": "_globalModelHash",
          "type": "string"
        }
      ],
      "name": "completeRound",
      "outputs": [],
      "stateMutability": "nonpayable",
      "type": "function"
    },
    {
      "inputs": [
        {
          "internalType": "uint256",
          "name": "_roundId",
          "type": "uint256"
        },
        {
          "internalType": "uint256",
          "name": "_loss",
          "type": "uint256"
        },
        {
          "internalType": "uint256",
          "name": "_accuracy",
          "type": "uint256"
        },
        {
          "internalType": "uint256",
          "name": "_auc",
          "type": "uint256"
        },
        {
          "internalType": "uint256",
          "name": "_precision",
          "type": "uint256"
        },
        {
          "internalType": "uint256",
          "name": "_recall",
          "type": "uint256"
        }
      ],
      "name": "submitEvaluation",
      "outputs": [],
      "stateMutability": "nonpayable",
      "type": "function"
    },
    {
      "inputs": [
        {
          "internalType": "uint256",
          "name": "_roundId",
          "type": "uint256"
        }
      ],
      "name": "getParticipantCount",
      "outputs": [
        {
          "internalType": "uint256",
          "name": "",
          "type": "uint256"
        }
      ],
      "stateMutability": "view",
      "type": "function",
      "constant": true
    },
    {
      "inputs": [
        {
          "internalType": "uint256",
          "name": "_roundId",
          "type": "uint256"
        },
        {
          "internalType": "uint256",
          "name": "_index",
          "type": "uint256"
        }
      ],
      "name": "getParticipantAtIndex",
      "outputs": [
        {
          "internalType": "address",
          "name": "",
          "type": "address"
        }
      ],
      "stateMutability": "view",
      "type": "function",
      "constant": true
    },
    {
      "inputs": [
        {
          "internalType": "uint256",
          "name": "_roundId",
          "type": "uint256"
        },
        {
          "internalType": "address",
          "name": "_institution",
          "type": "address"
        }
      ],
      "name": "getModelUpdateByInstitution",
      "outputs": [
        {
          "internalType": "string",
          "name": "",
          "type": "string"
        },
        {
          "internalType": "string",
          "name": "",
          "type": "string"
        },
        {
          "internalType": "uint256",
          "name": "",
          "type": "uint256"
        }
      ],
      "stateMutability": "view",
      "type": "function",
      "constant": true
    }
  ],
  "bytecode": "0x608060405234801561001057600080fd5b50600080546001600160a01b03191633178155600455611214806100356000396000f3fe608060405234801561001057600080fd5b50600436106100cf5760003560e01c806386ae5fec1161008c5780638da5cb5b116100665780638da5cb5b1461019f5780639937f7ba146101a7578063b2d9767f146101c9578063ea910ff3146101eb576100cf565b806386ae5fec1461016457806387a23489146101845780638a19c8bc14610197576100cf565b806307962609146100d45780631f6b05f41461010157806336be5ad4146101165780634b4e17f2146101295780636d7f2e4e146101495780638586b4571461015c575b600080fd5b6100e76100e2366004610d04565b6101fe565b6040516100f895949392919061112d565b60405180910390f35b61011461010f366004610cb8565b6102bf565b005b610114610124366004610d47565b610433565b61013c610137366004610d04565b61052a565b6040516100f89190610f1c565b61013c610157366004610de0565b610554565b6101146105d1565b610177610172366004610d04565b610666565b6040516100f89190611124565b610114610192366004610e01565b61067e565b610177610758565b61013c61075e565b6101ba6101b5366004610d1c565b61076d565b6040516100f893929190610f79565b6101dc6101d7366004610c97565b6108ce565b6040516100f893929190610f30565b6101146101f9366004610d76565b610987565b600360205280600052604060002060009150905080600001549080600101549080600201549080600301805461023390611166565b80601f016020809104026020016040519081016040528092919081815260200182805461025f90611166565b80156102ac5780601f10610281576101008083540402835291602001916102ac565b820191906000526020600020905b81548152906001019060200180831161028f57829003601f168201915b5050506006909301549192505060ff1685565b6000546001600160a01b031633146102f25760405162461bcd60e51b81526004016102e9906110ab565b60405180910390fd5b6001600160a01b03821660009081526001602052604090206002015460ff161561032e5760405162461bcd60e51b81526004016102e990610faf565b604080516060810182526001600160a01b0384811680835260208084018681526001858701819052600093845280835295909220845181546001600160a01b03191694169390931783559051805193949293610391938501929190910190610b66565b506040918201516002918201805460ff191691151591909117905580546001810182556000919091527f405787fa12a823e0f2b7631cc41b3ba8828b3321ca811111fa75cd3aa3bb5ace0180546001600160a01b0319166001600160a01b03851690811790915590517f73a52c071d4a02996481449bf1ad04d8f24559a7ec51210c4ec5e43d3baee88190610427908490610f66565b60405180910390a25050565b6000546001600160a01b0316331461045d5760405162461bcd60e51b81526004016102e9906110ab565b600454821461047e5760405162461bcd60e51b81526004016102e99061101d565b60008281526003602052604090206006015460ff16156104b05760405162461bcd60e51b81526004016102e990611074565b600082815260036020818152604090922060068101805460ff19166001179055835190926104e49284019190850190610b66565b5042600282015560405183907ff5349192467e1a2d228acda106f6456f317341386e8bc9ff3aa03a8693052d4b9061051d908590610f66565b60405180910390a2505050565b6002818154811061053a57600080fd5b6000918252602090912001546001600160a01b0316905081565b60008281526003602052604081206005015482106105845760405162461bcd60e51b81526004016102e990611047565b60008381526003602052604090206005018054839081106105b557634e487b7160e01b600052603260045260246000fd5b6000918252602090912001546001600160a01b03169392505050565b6000546001600160a01b031633146105fb5760405162461bcd60e51b81526004016102e9906110ab565b6004805490600061060b836111a1565b90915550506004805460008181526003602052604080822092835542600184015560068301805460ff19169055925492519192917f1587208096f961cf2a918fbd4cd23e69d12db1f05a9deca78cfb1af0bb2ee03c9190a250565b6000818152600360205260409020600501545b919050565b3360009081526001602052604090206002015460ff166106b05760405162461bcd60e51b81526004016102e990610fe6565b60008681526003602052604090206006015460ff166106e15760405162461bcd60e51b81526004016102e9906110ed565b600085858585856040516020016106fc959493929190610e8e565b604051602081830303815290604052905086336001600160a01b03167f214ccdfa072cf95f8cb4382ce33955d3e8c9f6c4cb1030059c8cfcc5c3e93f19836040516107479190610f66565b60405180910390a350505050505050565b60045481565b6000546001600160a01b031681565b60008281526003602090815260408083206001600160a01b03851684526004019091528120600281015481546060938493909290918291600183019183906107b490611166565b80601f01602080910402602001604051908101604052809291908181526020018280546107e090611166565b801561082d5780601f106108025761010080835404028352916020019161082d565b820191906000526020600020905b81548152906001019060200180831161081057829003601f168201915b5050505050925081805461084090611166565b80601f016020809104026020016040519081016040528092919081815260200182805461086c90611166565b80156108b95780601f1061088e576101008083540402835291602001916108b9565b820191906000526020600020905b81548152906001019060200180831161089c57829003601f168201915b50505050509150935093509350509250925092565b6001602081905260009182526040909120805491810180546001600160a01b03909316926108fb90611166565b80601f016020809104026020016040519081016040528092919081815260200182805461092790611166565b80156109745780601f1061094957610100808354040283529160200191610974565b820191906000526020600020905b81548152906001019060200180831161095757829003601f168201915b5050506002909301549192505060ff1683565b3360009081526001602052604090206002015460ff166109b95760405162461bcd60e51b81526004016102e990610fe6565b60045483146109da5760405162461bcd60e51b81526004016102e99061101d565b60008381526003602052604090206006015460ff1615610a0c5760405162461bcd60e51b81526004016102e990611074565b600083815260036020908152604080832081516060810183528681528084018690524281840152338552600482018452919093208151805192939192610a559284920190610b66565b506020828101518051610a6e9260018501920190610b66565b50604082015181600201559050506000805b6005830154811015610aef57336001600160a01b0316836005018281548110610ab957634e487b7160e01b600052603260045260246000fd5b6000918252602090912001546001600160a01b03161415610add5760019150610aef565b80610ae7816111a1565b915050610a80565b5080610b1d57600582018054600181018255600091825260209091200180546001600160a01b031916331790555b84336001600160a01b03167f43e7024a5d44dbb2893e21fa9e356bc93465ba074b2b4c5596872f4a98e879d086604051610b579190610f66565b60405180910390a35050505050565b828054610b7290611166565b90600052602060002090601f016020900481019282610b945760008555610bda565b82601f10610bad57805160ff1916838001178555610bda565b82800160010185558215610bda579182015b82811115610bda578251825591602001919060010190610bbf565b50610be6929150610bea565b5090565b5b80821115610be65760008155600101610beb565b80356001600160a01b038116811461067957600080fd5b600082601f830112610c26578081fd5b813567ffffffffffffffff80821115610c4157610c416111c8565b604051601f8301601f191681016020018281118282101715610c6557610c656111c8565b604052828152848301602001861015610c7c578384fd5b82602086016020830137918201602001929092529392505050565b600060208284031215610ca8578081fd5b610cb182610bff565b9392505050565b60008060408385031215610cca578081fd5b610cd383610bff565b9150602083013567ffffffffffffffff811115610cee578182fd5b610cfa85828601610c16565b9150509250929050565b600060208284031215610d15578081fd5b5035919050565b60008060408385031215610d2e578182fd5b82359150610d3e60208401610bff565b90509250929050565b60008060408385031215610d59578182fd5b82359150602083013567ffffffffffffffff811115610cee578182fd5b600080600060608486031215610d8a578081fd5b83359250602084013567ffffffffffffffff80821115610da8578283fd5b610db487838801610c16565b93506040860135915080821115610dc9578283fd5b50610dd686828701610c16565b9150509250925092565b60008060408385031215610df2578182fd5b50508035926020909101359150565b60008060008060008060c08789031215610e19578182fd5b505084359660208601359650604086013595606081013595506080810135945060a0013592509050565b60008151808452815b81811015610e6857602081850181015186830182015201610e4c565b81811115610e795782602083870101525b50601f01601f19169290920160200192915050565b673d913637b9b9911d60c11b815260088101959095526b161130b1b1bab930b1bc911d60a11b6028860152603485019390935266161130bab1911d60c91b6054850152605b8401919091526c1611383932b1b4b9b4b7b7111d60991b607b84015260888301526916113932b1b0b636111d60b11b60a883015260b2820152607d60f81b60d282015260d30190565b6001600160a01b0391909116815260200190565b6001600160a01b0384168152606060208201819052600090610f5490830185610e43565b90508215156040830152949350505050565b600060208252610cb16020830184610e43565b600060608252610f8c6060830186610e43565b8281036020840152610f9e8186610e43565b915050826040830152949350505050565b6020808252601e908201527f496e737469747574696f6e20616c726561647920726567697374657265640000604082015260600190565b6020808252601a908201527f496e737469747574696f6e206e6f7420617574686f72697a6564000000000000604082015260600190565b60208082526010908201526f125b9d985b1a59081c9bdd5b9908125160821b604082015260600190565b602080825260139082015272496e646578206f7574206f6620626f756e647360681b604082015260600190565b60208082526017908201527f526f756e6420616c726561647920636f6d706c65746564000000000000000000604082015260600190565b60208082526022908201527f4f6e6c79206f776e65722063616e20706572666f726d2074686973206163746960408201526137b760f11b606082015260800190565b60208082526017908201527f526f756e64206e6f7420636f6d706c6574656420796574000000000000000000604082015260600190565b90815260200190565b600086825285602083015284604083015260a0606083015261115260a0830185610e43565b905082151560808301529695505050505050565b60028104600182168061117a57607f821691505b6020821081141561119b57634e487b7160e01b600052602260045260246000fd5b50919050565b60006000198214156111c157634e487b7160e01b81526011600452602481fd5b5060010190565b634e487b7160e01b600052604160045260246000fdfea2646970667358221220be41c222e605ba84a61e3328569cdbdcdd47b0bcfd01b443b8debc40b7132e5f64736f6c63430008000033",
  "immutableReferences": {},
  "source": "\n// SPDX-License-Identifier: MIT\npragma solidity ^0.8.0;\n\ncontract FraudDetectionFederated {\n    struct Institution {\n        address addr;\n        string name;\n        bool authorized;\n    }\n    \n    struct ModelUpdate {\n        string ipfsHash;\n        string metrics;\n        uint256 timestamp;\n    }\n    \n    struct TrainingRound {\n        uint256 roundId;\n        uint256 startTime;\n        uint256 endTime;\n        string globalModelHash;\n        mapping(address => ModelUpdate) updates;\n        address[] participants;\n        bool completed;\n    }\n    \n    address public owner;\n    mapping(address => Institution) public institutions;\n    address[] public authorizedInstitutions;\n    mapping(uint256 => TrainingRound) public trainingRounds;\n    uint256 public currentRound;\n    \n    // Events for monitoring\n    event InstitutionRegistered(address indexed institution, string name);\n    event TrainingRoundInitiated(uint256 indexed roundId);\n    event ModelUpdateSubmitted(address indexed institution, uint256 indexed roundId, string ipfsHash);\n    event GlobalModelUpdated(uint256 indexed roundId, string ipfsHash);\n    event ModelEvaluationSubmitted(address indexed institution, uint256 indexed roundId, string metrics);\n    \n    constructor() {\n        owner = msg.sender;\n        currentRound = 0;\n    }\n    \n    modifier onlyOwner() {\n        require(msg.sender == owner, \"Only owner can perform this action\");\n        _;\n    }\n    \n    modifier onlyAuthorized() {\n        require(institutions[msg.sender].authorized, \"Institution not authorized\");\n        _;\n    }\n    \n    function registerInstitution(address _institution, string memory _name) public onlyOwner {\n        require(!institutions[_institution].authorized, \"Institution already registered\");\n        \n        institutions[_institution] = Institution({\n            addr: _institution,\n            name: _name,\n            authorized: true\n        });\n        \n        authorizedInstitutions.push(_institution);\n        emit InstitutionRegistered(_institution, _name);\n    }\n    \n    function initiateTrainingRound() public onlyOwner {\n        currentRound++;\n        \n        TrainingRound storage round = trainingRounds[currentRound];\n        round.roundId = currentRound;\n        round.startTime = block.timestamp;\n        round.completed = false;\n        \n        emit TrainingRoundInitiated(currentRound);\n    }\n    \n    function submitModelUpdate(uint256 _roundId, string memory _ipfsHash, string memory _metrics) public onlyAuthorized {\n        require(_roundId == currentRound, \"Invalid round ID\");\n        require(!trainingRounds[_roundId].completed, \"Round already completed\");\n        \n        TrainingRound storage round = trainingRounds[_roundId];\n        round.updates[msg.sender] = ModelUpdate({\n            ipfsHash: _ipfsHash,\n            metrics: _metrics,\n            timestamp: block.timestamp\n        });\n        \n        // Add participant if not already in the list\n        bool found = false;\n        for (uint i = 0; i < round.participants.length; i++) {\n            if (round.participants[i] == msg.sender) {\n                found = true;\n                break;\n            }\n        }\n        \n        if (!found) {\n            round.participants.push(msg.sender);\n        }\n        \n        emit ModelUpdateSubmitted(msg.sender, _roundId, _ipfsHash);\n    }\n    \n    function completeRound(uint256 _roundId, string memory _globalModelHash) public onlyOwner {\n        require(_roundId == currentRound, \"Invalid round ID\");\n        require(!trainingRounds[_roundId].completed, \"Round already completed\");\n        \n        TrainingRound storage round = trainingRounds[_roundId];\n        round.completed = true;\n        round.globalModelHash = _globalModelHash;\n        round.endTime = block.timestamp;\n        \n        emit GlobalModelUpdated(_roundId, _globalModelHash);\n    }\n    \n    function submitEvaluation(uint256 _roundId, \n                             uint256 _loss, \n                             uint256 _accuracy, \n                             uint256 _auc, \n                             uint256 _precision, \n                             uint256 _recall) public onlyAuthorized {\n        require(trainingRounds[_roundId].completed, \"Round not completed yet\");\n        \n        string memory metrics = string(abi.encodePacked(\n            '{\"loss\":', _loss,\n            ',\"accuracy\":', _accuracy,\n            ',\"auc\":', _auc,\n            ',\"precision\":', _precision,\n            ',\"recall\":', _recall, '}'\n        ));\n        \n        emit ModelEvaluationSubmitted(msg.sender, _roundId, metrics);\n    }\n    \n    function getParticipantCount(uint256 _roundId) public view returns (uint256) {\n        return trainingRounds[_roundId].participants.length;\n    }\n    \n    function getParticipantAtIndex(uint256 _roundId, uint256 _index) public view returns (address) {\n        require(_index < trainingRounds[_roundId].participants.length, \"Index out of bounds\");\n        return trainingRounds[_roundId].participants[_index];\n    }\n    \n    function getModelUpdateByInstitution(uint256 _roundId, address _institution) public view returns (string memory, string memory, uint256) {\n        ModelUpdate storage update = trainingRounds[_roundId].updates[_institution];\n        return (update.ipfsHash, update.metrics, update.timestamp);\n    }\n}",
  "sourcePath": "/home/cam/v2-flw/blockchain/contracts/FraudDetectionFederated.sol",
  "compiler": {
    "name": "solc",
    "version": "0.8.0+commit.c7dfd78e.Emscripten.clang"
  },
  "schemaVersion": "3.4.16",
  "updatedAt": "2025-03-31T13:32:21.386Z",
  "networkType": "ethereum",
  "devdoc": {
    "kind": "dev",
    "methods": {},
    "version": 1
  },
  "userdoc": {
    "kind": "user",
    "methods": {},
    "version": 1
  }
}